:020000040800F2
:1000000000020020E10B00087D0B0008390B0008FE
:100010008D0B00089D0B0008AD0B000800000000D0
:10002000000000000000000000000000190B0008A4
:10003000BD0B000800000000CD0A0008CD0B000831
:10004000251F0008251F0008251F0008251F000880
:10005000251F0008251F0008251F0008251F000870
:10006000251F0008251F0008251F0008251F000860
:10007000251F0008251F0008251F0008251F000850
:10008000251F0008251F0008251F0008251F000840
:10009000251F0008251F0008251F0008251F000830
:1000A000251F0008251F0008251F0008251F000820
:1000B000891B0008251F0008251F0008251F0008B0
:1000C000251F0008251F0008251F0008251F000800
:1000D000251F0008251F0008591D00084D1D000898
:1000E000251F0008251F0008251F0008251F0008E0
:1000F000251F0008251F0008251F0008251F0008D0
:10010000251F0008251F0008251F0008251F0008BF
:10011000251F0008251F0008251F0008251F0008AF
:10012000251F0008251F0008251F0008251F00089F
:10013000251F0008251F0008251F0008251F00088F
:10014000251F0008251F0008251F0008251F00087F
:10015000251F0008251F0008251F0008531D000843
:10016000251F0008251F0008251F0008251F00085F
:10017000251F0008251F0008251F0008000000009B
:10018000251F0008251F0008251F0008251F00083F
:10019000251F0008251F0008251F0008251F00082F
:1001A000251F0008251F0008251F0008251F00081F
:1001B000251F0008251F0008251F0008251F00080F
:1001C000251F0008251F0008000000000000000097
:1001D000000000000000000000000000251F0008D3
:1001E000251F0008251F0008251F0008251F0008DF
:1001F000251F0008251F000808B501F071F900202F
:1002000008BD08B501F098F9002008BD012A70B5B5
:100210000CD9434E0D783678AE4208D1931E13F0B8
:10022000FF0303D00B445A783E4B1A7070BD3E4E0C
:100230003678AE4212D1013A3C4BD2B28A5C1A7087
:100240003B4B59789B78914202BF3A4904200860A1
:100250009342EBD1374B00221A60E7E7364E3678EF
:10026000AE4255D1013A354C304DD2B28B5C22783A
:100270002B709A423AD1324B6122002131481A70D8
:1002800001F026FB0021304801F022FB01212F481C
:1002900001F01EFB2A7863799A420ED1284B302256
:1002A000002128481A7001F013FB0021264801F0B4
:1002B0000FFB0121254801F00BFB254B2A789B7889
:1002C0009A42B3D11E4B1A78312AAFD03022002186
:1002D0001C481A7001F0FCFA00211B4801F0F8FAE2
:1002E00001211A48BDE8704001F0F2BA62789A42E2
:1002F00002D1134B6222C0E7A2789A4202D1104B7E
:100300006322BAE7E2789A42C4D10D4B3122B4E7B6
:10031000104B98428AD01846BDE8704001F0BCB836
:10032000B50F0020AC0E002000020020B60E002009
:100330000C020020201000200B02002004020020EC
:100340000F0200200B0C02400C0C02400D0C02406E
:1003500001020020B80F00202DE9F0435F4B00247C
:1003600087B05F4D1C7006225E4B4FF4C0615E4843
:1003700002935E4B01950093082300F0A1FA5C4BB9
:1003800005224FF4C0615B485B4FDFF88C81CDE9FB
:1003900001535A4B0093082300F092FA584B012165
:1003A0001E68304601F03EFF2146564801F0FDF937
:1003B0002146554801F0F9F90121544801F0F5F9B9
:1003C0000121534801F0F1F90121524801F0EDF902
:1003D00001214F4801F07CFA21464B4801F078FAA0
:1003E00021464A4801F074FA0121434801F0DDF941
:1003F0000121494801F0D9F90121484801F0D5F916
:1004000021463D4801F064FA0121434801F060FAB9
:1004100021463D4C414801F05BFA3A4801F03BFA75
:10042000814620463E4D01F036FAB9F1000F19D051
:100430003C4B1B78302B01D0612B13D101232B6057
:100440000021384601F044FA0021404601F040FA0C
:100450000121324801F03CFA0021204601F038FA2F
:10046000012136E02B6800B3012B1ED102232B6043
:100470000021204601F02CFA0021244801F028FA3E
:10048000294B022205A91B7815488DF81430274BFB
:100490001B788DF8153000F0FFFF18B10A213046A7
:1004A00001F0C0FE03232B60B7E7042BB5D801A2EF
:1004B00052F823F0C9040008410400087104000840
:1004C000C9040008590400080021204601F000FA80
:1004D00000210E4801F0FCF99FE700BFB50F002096
:1004E000B80F0020F04A0008AC080020F90100080D
:1004F000F44A0008AC0200200B0C02400302000882
:100500004851000800000240010002400200024081
:1005100003000240000802400C0C02400D0C024097
:10052000201000200F020020000200200C020020FA
:1005300007B50022044B16210448009200F09EFFEC
:1005400003B05DF804FB00BF0D020008B80F0020E7
:1005500070B5064E0025064CA41BA408AC4200D181
:1005600070BD56F8253001359847F7E7F851000877
:10057000005200087047000008B57146034802F0B9
:10058000ADFF0349032000F02DF800BF144B000815
:10059000024B000808B5FFF7DBFF034803F026F81D
:1005A000FFF7DAFE002008BD184B00081FB5EFF377
:1005B000108372B6074B07224FF4C06106480293BE
:1005C00000230193054B00930C2300F079F900F010
:1005D00069FA00BF534B000824100020950500085D
:1005E0007047000008B50B4B0C461A6852B901223F
:1005F0001A60FFF7F5FF2146074802F06FFF074832
:1006000002F0F4FFEFF3108372B600F009FA01F084
:10061000E1FB00BF24160020584B0008744B000873
:10062000F8B504460D46EFF3108772B603683BB980
:100630004FF0FF33036087F3108801252846F8BD8B
:1006400011B987F31088F9E70F4B1E680EB9FFF751
:1006500093FF0321304600F093F8236801330DD156
:1006600006F1080323600023B36087F31088074B6B
:100670004FF080525A60BFF36F8FDFE7314620465C
:1006800000F00AF9F1E700BF3016002000ED00E0AD
:1006900070B50546EFF3108672B6046814B986F398
:1006A000108870BD631C02D100230360F7E754F883
:1006B00008390C210360204600F062F82B6813B95A
:1006C0004FF0FF332B60607986F31088BDE87040EF
:1006D00000F098B808B503790B2B04BF0C23037105
:1006E000436A1A68934208D0B0F90610034802F032
:1006F000F5FE03490D20FFF775FF08BD814B00088B
:10070000B04B000870B5184C184D23682E6843BBD9
:1007100016B13046FFF7DEFF00F006FA2368002B23
:10072000FAD00020124B00221A602368114AB3FA53
:1007300083F352F823301C680B23083C2371B44226
:100740000DD008B1FFF7C6FFB4F9062002200A4B0E
:10075000616A1A801F31094A2C6000F055F9204661
:1007600070BD3046DEE700BF28160020301600209E
:10077000341600203C1600202C1600200800061617
:100780000A290379F0B51BD90A2B15D8477900F14E
:1007900008051A4A3C4652F827607EB133688360E8
:1007A00052F827301D6042F824504FF00043144A9D
:1007B000FB401468234313600171F0BD8560F2E7CC
:1007C0000A2BF9D90D4B457953F825203AB1146815
:1007D000A2420BBF0022246843F82520146042790E
:1007E00053F82230002BE7D1054C4FF0004323FA99
:1007F00002F2236823EA02032360DDE73C160020AF
:10080000281600200B4B1B681A790A2A02D95B793B
:1008100083420ED9EFF3058313F0FF0F03D0064B8D
:1008200001221A607047054B4FF080525A60BFF3A7
:100830006F8F7047301600203416002000ED00E066
:1008400008B5EFF3108372B6084B0021084A1B88E5
:10085000084C1BB2206842F82310074A1368013B7A
:100860001360FFF78DFF216000F01CF92C160020AB
:100870007C1600203016002038160020431E9BB244
:100880001F2B05D8034B53F8200010B1806A704726
:10089000002070477C16002038B50B790A2B01D94F
:1008A000FFF76AFE4C7901F108020346006818B1AF
:1008B00010F8035CA542F8D988601A6038BD0000C2
:1008C0000F2A2DE9F84F054689461746984633D832
:1008D00010F003031BBFC3F10402043B0B465B187B
:1008E00018BFAD1818F0080FA3F1300323F003036D
:1008F00005EB030417D12D6003E012600432A2421D
:10090000FBD3EFF3108B72B60122254951F8226018
:100910000FFA82FA9EB10132212AF7D18BF31088A7
:100920006FF08A0A39E02A46E9E702212046FFF7FC
:1009300027FF8BF3108830E06FF0150A2DE041F8A7
:1009400022402A46A4F806A0DDE90A0100F076F864
:100950000C9B144A18F0010FA3624FF0FF33206084
:100960006562C4F82C9067712671A661C4E90736E8
:10097000136803F10103C4E90266C4E90466136065
:10098000D3D10C212046FFF7FBFE18F0040FD0D185
:100990008BF310883846FFF735FF5046BDE8F88FD7
:1009A0007C160020381600200C4B10210C4A10B584
:1009B0009A60F0220B4C83F822200022D977A018ED
:1009C00001326E2A80F80013F9D11A6942F0100240
:1009D0001A615A6942F400725A6110BD00ED00E0DC
:1009E0000000000800E100E0064A0020536843F0E0
:1009F0000503536052F86C3C43F4803342F86C3C7E
:100A0000704700BF90ED00E0044B21F01F0142F061
:100A1000010298600020D9601A61704790ED00E0F3
:100A200008B5EFF30581C1F3080119B11039024887
:100A300002F054FD00BE08BDBF4B000813444FF048
:100A4000773223F0030310B543F8042C5A07A3F1BF
:100A500004045EBF4FF08832A3F1080443F8082C69
:100A60004FF08073002244F8201C44E902030C4B31
:100A7000022044F80C3C032344E9053201232246BA
:100A800044E907306FF0020342F8243D0B2342F89B
:100A9000043D013B032BFAD1A4F1440010BD00BF7B
:100AA000410800080023E1EE103AEFF3148323F02D
:100AB000040383F31488EFF3108362B6024B4FF004
:100AC00080525A60BFF36F8F00ED00E0114910B5FE
:100AD0000C6872B6FFF716FE62B6A04208BF10BDE2
:100AE0002146BDE8104049B1EFF309821EF0100F16
:100AF00008BF22ED108A22E9F04F0A600068B0E8D2
:100B0000F04F1EF0100F08BFB0EC108A80F3098878
:100B10007047000030160020024B4FF080525A60A0
:100B2000704700BF00ED00E008B501F019F962B6AA
:100B3000BFF36F8F72B608BD0D4B0E4A0E49684663
:100B4000904203D8984201D9002102E009468D461F
:100B5000012104207246024202D1EFF3088001E035
:100B6000EFF309802DE9F00F6B4600F0A9F800BF04
:100B70005801002000000820000200200249052042
:100B800008B5FFF72FFD00BFCE4B00080249072034
:100B900008B5FFF727FD00BFDA4B0008024908201F
:100BA00008B5FFF71FFD00BFED4B00080249092003
:100BB00008B5FFF717FD00BFFF4B000802490A20E8
:100BC00008B5FFF70FFD00BF134C000802490B20CA
:100BD00008B5FFF707FD00BF254C000870477047B8
:100BE000284AD2F8883043F4700310B5C2F8883030
:100BF000FFF7F4FF6A46244B24491C46934227D34F
:100C0000234B244A24498B4225D3244B0021244AD8
:100C1000934225D300F0EEF900F0FCF948B9214ADF
:100C2000214B22498B421ED3214B0021214A934262
:100C30001ED304BBFFF7D8FEFFF7D1FF00F094F9F5
:100C4000FFF798FC02F06AFABDE81040FFF7AEBC6F
:100C500043F8041BD2E752F8040B43F8040BD2E725
:100C600043F8041BD4E752F8040B43F8040BD9E70C
:100C700043F8041BDBE7104A01201049FFF7C4FECC
:100C8000D8E700BF00ED00E000000020FEE7FEE72F
:100C900000020020AC530008AC020020AC0200208F
:100CA0005018002058540008004002400440024000
:100CB0000440024004400240080006161F000020C5
:100CC0002DE9F04F2DED068B89B0904604468946FC
:100CD0000493584B9A6B08EE102A5A6BD3F828A04D
:100CE00008EE902ADA6A09EE102A1A6BDB6B09EE1D
:100CF000902A0AEE103A504B1A68504B9A4202D092
:100D00004F4802F073FCB9F1000F65D000254D4843
:100D100002F06CFC2E464C4802F068FC51464B48F1
:100D200002F0DCFB19EE101A494802F0D7FB19EE6D
:100D3000901A484802F0D2FB1AEE101A464802F008
:100D4000CDFB1AF4004F04D018EE101A434802F0FD
:100D5000C5FB1AF0800F04D018EE901A404802F03C
:100D6000BDFB404802F042FC41463F4802F0B6FB62
:100D7000B9F1000F2CD118F0080F55D03B4B198852
:100D800009B208460391FFF779FD039902463848F6
:100D900002F0A4FB374802F029FC3146364802F045
:100DA0009DFB6946354BC91A03D54942344802F0C8
:100DB00095FB049B1E4620468268C36801698C46E9
:100DC00041698E46AD46314691E8F00F41680068B2
:100DD0002C490620FFF706FCD4E90230E7690390AE
:100DE0002069D4E900120AEE900AB805264854BFDB
:100DF00004F1200504F124050591D4E905B6CDE9F7
:100E0000062302F0F3FB039B059900931F48DDE9DD
:100E1000062302F063FB33465A461AEE901A0097F7
:100E20001B4802F05BFB76E7217F1A48103902F07D
:100E300055FBAFE700ED00E000000020FEE7FEE715
:100E4000334C0008494C00080E4D0008174D0008AF
:100E5000274D0008374D0008474D0008574D000842
:100E6000674D0008774D00087C4D00082C160020C7
:100E70008E4D0008CD4D0008FE4D000858010020A1
:100E8000264E0008534E0008784C0008934C00088A
:100E9000D04C0008A74D0008034A044B012814BF9A
:100EA00010461846704700BF80F9370300F36F06FD
:100EB000044A054B012808BF1346044A105C5843F6
:100EC000704700BF00F36F0680F93703664E0008D5
:100ED000042808D8DFE800F0030A0F1419000D4AAF
:100EE000136C19431164BFF34F8F7047094A536C59
:100EF00019435164F7E7074A136B19431163F2E78B
:100F0000044A536B19435163EDE7024A936B19434B
:100F10009163E8E700380240042821D8DFE800F0B8
:100F200003090F151B000F4A136C23EA010111641A
:100F300070470C4A536C23EA010151647047094A17
:100F4000136B23EA010111637047064A536B23EACE
:100F5000010151637047034A936B23EA01019163D6
:100F6000704700BF0038024010B5FFF71DFD4FF07D
:100F700080510020FFF7ACFF1B4B4FF6FF710220A2
:100F80001C6BFFF7A5FF194B6FF0A842A1B202201E
:100F90001A606FF4A072C3F800244FF0FF33144AB4
:100FA000136002F580621360C2F80034C2F80038A2
:100FB00002F58062C2F80038C2F8003C02F5806297
:100FC000C2F8003C02F58062C2F8003C02F5806283
:100FD000C2F8003CFFF77CFF00F054FF00F016FF62
:100FE000BDE8104000F0C2BB0038024000000240E3
:100FF000000802404FF08051002008B5FFF768FF5D
:1010000000F02CFF4FF480210220BDE80840FFF7DC
:101010005FBF000037B500F0E1FC094A01A90423D5
:10102000084812F8015B019011F8014BA54202D06B
:10103000002003B030BD013BF3D10120F9E700BF30
:101040000040024052494F5402460144002010B56E
:10105000064C8A4209D012F8013B83EA102334F887
:10106000133083EA002398B2F3E710BD684E0008FE
:101070004269013201D000F0BABF83685B6818474B
:1010800038B50446154608462160012100F08DFB65
:101090002846A56000F0D0FA01232046636138BDE0
:1010A000034B10B504461868FFF7E2FF606010BDFF
:1010B000485100080A4B70B51E6805460C4630467C
:1010C000FFF7D6FF696840F6B83303FB0414844287
:1010D00003D9211A304601F0A5F86C6070BD00BF3D
:1010E0004851000810B50446006800F0E7FB0521F0
:1010F0002046FFF7DFFF206800F0D7FB20460521E0
:10110000BDE81040FFF7D6BF10B50446006800F0F8
:10111000CCFB05212046FFF7CDFF206800F0CEFB79
:1011200020460521BDE81040FFF7C4BFF8B50646CC
:101130000F461446002507FA05F31B0606D50134B1
:101140003046FFF7CFFFE4B2052C03D10024304630
:10115000FFF7DAFF0135082DEDD12046F8BD38B58F
:1011600008250446FFF79CFF2046FFF7CDFF2046E9
:10117000FFF7B8FF013DF7D138BD70B50546002433
:101180007E2606FA04F328461B0605D5FFF7AAFFBC
:101190000134082CF5D170BDFFF7B6FFF8E72DE953
:1011A000F34104460D461646FFF7D9FF20462F4669
:1011B000FFF7E3FF06EB05080022474506D017F8C6
:1011C000011B2046FFF7B2FF0246F6E731462846EC
:1011D0000192FFF739FF0546019AC0F30721204627
:1011E000FFF7A4FF0246E9B22046FFF79FFF204623
:1011F00002B0BDE8F041FFF7C0BFF8B55A274FF085
:1012000000446FF000460546FFF74AFF4FF080713B
:10121000A86800F05DFA86424FF00101A8BF0646BB
:101220008442B8BF04462846FFF744FF013FEDD192
:10123000A31B312BC9BFA4194FF0FF3004EBD474AA
:101240006010C8BFE860F8BD10B504464FF080716B
:10125000806800F03DFAE36807498342074B1A783B
:1012600002F101001870CBBF5F232D230020012065
:10127000CCBF8B548B5410BD0017002000180020E9
:10128000F8B50446F027FFF7DFFF002506462046A5
:10129000FFF7DAFFB04209D1013501212046FFF7FF
:1012A00009FF013FF3D14FF0FF3006E0072D05DDC8
:1012B00020460521FFF7FEFE0020F8BD064600256A
:1012C000EBE7F8B50546052400262846FFF7BCFFE6
:1012D000012106442846FFF7EDFE013CF5D1052724
:1012E0002846FFF7B1FF012104442846FFF7E2FE3C
:1012F000013FF5D1022E05DC022CCCBF01204FF0BE
:10130000FF30F8BD022C4FF0FF30D8BF0020F8E7C7
:1013100010B504462046FFF7D4FF431C01D0002837
:10132000F8D110BD38B50446FFF7F2FF421C10D0CB
:1013300006252046FFF7C5FF431C0AD00028F7D03A
:10134000013DF6D12046FFF7BCFF003818BF012051
:10135000404238BDF8B5002504460E4680270D7082
:101360002369042B06DD2046FFF7ABFF431C07D0A3
:1013700048B920612046FFF7A4FF68B1012811D0C9
:101380004FF0FF3007E02046FFF79BFF00280CBF1F
:1013900001204FF0FF30F8BD20610135082DDFD16D
:1013A0000020F8E723690133236147FA05F3327817
:1013B00013433370F1E7F8B5002405460E4617468F
:1013C0000461BC420BD031192846FFF7C3FF431C10
:1013D00002D0012801D12046F8BD0134F1E74FF0D9
:1013E000FF30F9E72DE9F84F224F4FF0000943692C
:1013F00006460D469346BA46DFF87C8087F8009093
:10140000B3B1FFF7FAFE431C044605D13B7808F858
:1014100003902046BDE8F88F3046FFF731FF0446C1
:10142000601CF3D03046FFF77DFF411C0446EDD031
:101430005A4629463046FFF7BEFF421C0746534234
:1014400053410022012873619AF8003008F8032004
:101450000CDD841E2846E1B2FFF7F6FD2A5D3D440F
:1014600015F8013C43EA02239842D2D04FF0FF34F2
:10147000CFE700BF001800200017002038B5044651
:101480001D46FFF7FDFD049B2046E5612362002316
:1014900084F86430A36138BD402A2DE9F041054647
:1014A000884616460BD800F1180701213846FFF789
:1014B000B7F895F864402CB13846FFF7E9F84FF0DB
:1014C000FF300BE03246414605F1240001F04AFEB0
:1014D000384685F86460FFF7DBF82046BDE8F08108
:1014E000F8B5044600F11805124F01212846FFF710
:1014F00097F894F864602846FFF7CAF8AEB1324610
:1015000004F124012046FFF74AFE01212846FFF797
:1015100087F80023284684F86430FFF7B9F8236A77
:10152000002BE2D020469847DFE76421386800F0BE
:1015300079FEDAE74851000810B5044690B0402221
:1015400069462046FFF74EFF021EF8DBE369002BD9
:10155000F5D0D2B2694620469847F0E77047704709
:101560000146034808B501F0B9FF00F033FCFEE77F
:1015700068500008034630B5EFF3108472B60A4A8B
:101580000A4D10680144A94206D90C224FF0FF30E1
:101590001A6084F3108830BD054DA942F5D311605F
:1015A000421CF6D1F1E700BF100200200000082025
:1015B00050180020014B188800B270472C160020EC
:1015C000032303604FF0FF3070471946104600F0C8
:1015D00024BC1946104600F023BC132303604FF0CF
:1015E000FF307047132303604FF0FF307047132321
:1015F00003604FF0FF30704702294FF00003036093
:101600008CBF002001207047094B012103EBC00073
:10161000084B10B5047903EB8400FFF701F84FF491
:1016200080710120A140BDE81040FFF751BC00BF10
:101630008450000804180020062838B505463ED816
:10164000204CFFF7E1FF54F83500431C01D000F0B7
:101650000DF904EBC50000224FF4403104794579BF
:101660002302092D03F1804303F59033DA624FF032
:1016700001029A60144A516005EB4501D8684FF0A9
:10168000070214D91E398A4020EA0200D860D968BE
:101690000A43DA604FF480710120A140FFF73CFC5F
:1016A0000A4800EB8400FEF7F3FF002038BD8A40B3
:1016B00020EA0200D86019690A431A61EAE74FF08C
:1016C000FF30F3E784500008002301400418002095
:1016D00011F0FF0F38B505460C4622D1FFF794FFF5
:1016E000114800EBC500057942792B0203F18043D4
:1016F00003F590335C605A639A6842F080429A60C6
:101700001A689207FCD54FF480710120DC6CA94067
:10171000FFF702FC054800EB8500FEF7B9FF204605
:1017200038BD4FF0FF34FAE7845000080418002059
:1017300010B50B4C0121204600F037F84FF48033F0
:1017400001210848A36100F030F84FF400030121A3
:101750000548A36100F029F84FF08043A36110BD54
:1017600000040240070402400E04024008B5FFF7DF
:10177000DFFF002000F074F9012000F071F9BDE8EE
:10178000084000F0AAB873B5044615460191EFF37E
:10179000108672B600F0BCF901994219204600F09B
:1017A00087F986F3108802B070BDF8B520F00F04F9
:1017B00000F00F060127C0F383200D4607FA00F161
:1017C0000220FFF785FB06FA07F00323226805F0E5
:1017D0000301B7408340814022EA030211432160A4
:1017E000E26822EA0302E260C5F38102E168C5F320
:1017F000001582400020B5400A43E260626822EA98
:1018000007076760626815436560A2681343A360B9
:10181000F8BDF8B5C0F383230D46012100F00F0792
:1018200020F00F06044699400220FFF751FB072FD6
:1018300004F007044FF00F018CBF04230023A40021
:101840003344A14005FA04F41A6A22EA01021A623A
:101850007A00196A0C4303211C629140336823EA21
:101860000101022393400B433360F8BDC0F383238F
:10187000012110B5044699400220FFF729FB24F00E
:101880000F0204F00F0403231168640003FA04F448
:101890000C43146010BD20F00F0300F00F001A6914
:1018A000012303FA00F01040704720F00F020123DB
:1018B00000F00F0003FA00F09061704720F00F0273
:1018C00000F00F000123103003FA00F09061704720
:1018D00009B1FFF7EABFFFF7F1BF704770B50546E2
:1018E0000C4603204021FFF7F3FA0F4A042300219E
:1018F00013600B460DE05168C907FCD59068EE18DF
:10190000191D013306F8010B000A8B42F1D09C42ED
:10191000F7D1A342EFD30023402103201360BDE899
:101920007040FFF7F9BA00BF0008065010B500F08C
:101930009FFA044608B100F091FA074B5A6842F446
:1019400040725A605A681207FCD51CB1BDE81040BD
:1019500000F08CBA10BD00BF0070004008B5A0B107
:10196000012828D01B4A136923F0040313610023C4
:10197000EFF3108272B6BFF34F8F30BF82F310883F
:101980003BB3BDE8084000F07DBA134B1A6822F45F
:10199000C16222F003021A601A6842F00A021A6059
:1019A000DA68DA60FFF7C2FF0A4A136943F00403FA
:1019B00013610123DCE7084A136823F4C16323F0B1
:1019C00003031360136843F4C06343F0010313601F
:1019D000EAE708BD00ED00E00070004010B500F03F
:1019E00047FA044608B100F039FA054A536823F46F
:1019F000407353601CB1BDE8104000F037BA10BD11
:101A000000700040F8B5154C470104EB40156E68B6
:101A1000711C07D001213046FFF7C7FE297D3046F3
:101A2000FFF7F7FEE619B5686A1C07D000212846C3
:101A3000FFF7BBFE717D2846FFF7EBFE3C44E568EF
:101A40006B1C09D001212846FFF7AFFEA17D284677
:101A5000BDE8F840FFF7DDBEF8BD00BFBC50000890
:101A60000128F7B5044601D9FEF786FD0E4E002584
:101A70000E4B670106EB441443F82050FFF7C2FFFA
:101A8000207FA169CDE90001FFF722FAF3594FF455
:101A9000B8521D60DD615A60DDE9000103B0BDE8A8
:101AA000F040FFF739BA00BFBC5000081018002002
:101AB000032910B512DC0B4B040103EB00101C5979
:101AC000406804F134030240002043F8212002233F
:101AD000E26803FA01F11143E16010BD4FF0FF30FD
:101AE000FBE700BFFC50000803290BDC074B00019B
:101AF0000222185802FA01F1C36823EA0101C16009
:101B0000002070474FF0FF30704700BFFC500008C6
:101B10000001024B1B58586A704700BFFC50000878
:101B2000034B00011A58136843F001031360704718
:101B3000FC50000870B50E460446F0B910494FF04D
:101B40008045C1E900230121FFF7C2F94FF0FF33BF
:101B50002C6020466C60EB62FFF7AAF901234FF07E
:101B60008052B0FBF6F101392046A9626B61054B4A
:101B70001A60FFF7D5FF204670BD4FF0FF30FBE73E
:101B80001818002000E100E02DE9F8434FF08043F1
:101B900000244FF00208DFF86090DF6A1D461E69DE
:101BA000DA681C61164056B9114B1B682BB1114BFA
:101BB0004FF080525A60BFF36F8FBDE8F88308FA88
:101BC00004F2324211D0D34326EA0206A20002F107
:101BD0008042526B974208D3EA682146D9F8040044
:101BE0001340EB60D9F8003098470134DBE700BFC1
:101BF0003416002000ED00E0181800201423104ACD
:101C0000434370B5D458E569AA0609D50C230D4A9B
:101C1000616A5843131812581E7A58683140904729
:101C20002B0703D5236A43F008032362064B1B6886
:101C30002BB1064B4FF080525A60BFF36F8F70BDCF
:101C40000C510008201800203416002000ED00E0A0
:101C50000C23094A4343D35810B5044613B101205D
:101C600000F094F80548142303FB04046168A07C89
:101C7000BDE81040FFF72CB9201800200C510008D7
:101C80000228F8B504460F46164601D9FEF774FC43
:101C90000C221D4D4243A918AE504B60FF230B721E
:101CA000FFF7D6FF1423194A6343D558D4180023ED
:101CB000A07C2B606B60AB60FFF7EEF8B0FBF7F138
:101CC00089B2E068E960617CFFF7A3FDCEB1A66848
:101CD00004213046FFF769FD217C3046FFF799FD6E
:101CE00094F91330E27C002B07DB02F01F01012284
:101CF0005B098A40064941F823202D2300202B60F0
:101D0000F8BD0923FAE700BF201800200C51000895
:101D100000E100E0022810B501D9FEF72DFC1423E4
:101D20005843094B1B581868000705D50A449142CF
:101D300003D1DA695206FCD510BD11F8010BDC693C
:101D40002406FCD59862F2E70C5100080020FFF74A
:101D500055BF0120FFF752BF0220FFF74FBF000021
:101D600010B5EFF3108472B6074B9A783AB95A78E7
:101D700042B91878003818BF0120FFF7EFFD84F34F
:101D8000108810BD0220F8E71402002008B5074BA8
:101D90001A5CFF2A01D1FEF7EFFBEFF3108172B658
:101DA0001A5C01321A5481F3108808BD1402002015
:101DB00008B5074B1A5C0AB9FEF7DEFBEFF310819A
:101DC00072B61A5C013A1A5481F3108808BD00BF3C
:101DD0001402002008B5EFF3108372B60020FFF75D
:101DE000BDFDFBE707B504210DEB0100FFF776FD14
:101DF000019800F003F803B05DF804FB0128024BE2
:101E000038BF0120186070474418002000234FF4A9
:101E1000E1311A461846FFF733BF6FF0850070476F
:101E200010B50C460A4601460020FFF773FF204616
:101E300010BD0000044B1A6842F001021A601A68D3
:101E40009207FCD5704700BF00380240024A136871
:101E500023F001031360704700380240024A136800
:101E600043F48073136070470070004070470000B7
:101E7000034B186880F48070C0F30020704700BFE7
:101E80000070004038B5EFF3108572B60023214C86
:101E9000E360FFF7CFFF4FF41443A360A36813F090
:101EA0000C0FFBD11C4B40F207321A60A3F5E6334E
:101EB0001A6842F480321A605A68D403FCD51A6852
:101EC00042F400321A60154A53689803FCD5114B4E
:101ED00081221A601A6842F480321A601A689103EB
:101EE000FCD50F4A5A601A6842F080721A60094B9A
:101EF00019461A689201FCD59A6842F002029A606B
:101F00008B6803F00C03082BFAD1FFF79FFF85F3D2
:101F1000108838BD00380240003C0240007000408C
:101F200004364089FEF752BE036843B10B6823B9FB
:101F3000C068431A584258417047012070471846FC
:101F4000704710B504685CB162686AB923680360C1
:101F500043B9C36090F82000FF2801D0FFF728FFA5
:101F6000204610BD2260FBE70024F9E741690268C2
:101F7000B1F1FF3F836807D049081B681AB1526866
:101F8000914228BF1146184712B11B685168FAE701
:101F90009B68184710B502460C46FFF7C5FFF8B915
:101FA000FEF7EAFAA3421CD1D368A34204D19142BE
:101FB00014BF0B460023D36023680B601BB1596824
:101FC00060680144596000232360012413682BB921
:101FD00092F82000FF2801D0FFF7EAFE204610BD4E
:101FE000134619461B68002BDCD11C46EEE738B5BA
:101FF000436904460BB9FEF7BFFAEFF3108572B6DA
:1020000083685B6898470246E369D4E905018A4220
:10201000A3EB010336BF0130104680181844C4E911
:10202000062085F3108838BD4269013201D0FFF7E0
:10203000DEBF83685B68184738B505464468FFF71C
:10204000F3FF2B6833B1021B00245968914203D37C
:102050008A1A5A60686038BD521A5C601B68002B8F
:10206000F8D059680029F9D0EFE72DE9F843044684
:102070000D461646EFF3108972B6FFF7DDFF2946CD
:1020800080462046FFF750FF10B12046FFF782FF41
:10209000218A27462368B14234BF761A00266E6033
:1020A0002BB994F82000FF2801D0FFF76FFE686875
:1020B000002204E079681144814204D80A46BC46F3
:1020C0003F68002FF6D1831A2F606B60CFB17B6819
:1020D0001B1A13447B60CCF800502368AB420BD131
:1020E00063695A1C03D05B089E4228BF1E46A36842
:1020F000314620461B68984789F310884046BDE862
:10210000F883E560E7E700004369013310B5044652
:1021100019D0FFF789FF226882B1636851680B44C8
:10212000181A00280FDD6169A36849081B688142FD
:1021300028BF01462046BDE8104018476169A368E2
:1021400049081B68F6E7236843B92046FFF70EFFEE
:10215000EFF3058313F0FF0F17D010BD62685968C5
:102160000A44626000225A602046FFF7EAFE002817
:10217000EBD0D0E9023098472046FFF7E2FE002876
:10218000F5D12046FFF758FFEEE7034B4FF08052A2
:102190005A60BFF36F8FE0E700ED00E010B5064C2A
:1021A0004FF0FF33054A0021204600F01BF8FF23C3
:1021B00084F8203010BD00BF1802002040420F00FC
:1021C000FFF7A2BF0021406AFFF78EBC406AFFF70D
:1021D0009FBC028D406A8A4238BF0A460021FFF741
:1021E000D2BA000010B50446084611460A4A636197
:1021F0002346A2606062094AFFF79CFC08B1FEF723
:10220000BBF961694B1C06D0A368204649081B68CE
:10221000BDE81040184710BD4C510008C12100080E
:10222000FEF736BA10B586B0EFF3058212F0FF0262
:1022300001D0FEF7A1F94FF0FF3301AC03920594F2
:10224000CDE90132074B0493438A8B4238BFCA1A47
:1022500002A9FFF70AFF01212046FEF7E1F906B0C7
:1022600010BD00BF2122000803685A004CBF43F094
:10227000004323F000431844704700BF2DE9F843A2
:1022800029B34F1E044615463E464FF0000808EBA2
:10229000060101EBD171491004EBC1094846FFF773
:1022A000E3FF0346C80008308F42204409D0AB4208
:1022B00009D8FFF7D9FF0138A8420AD201F1010875
:1022C000E5E7AB4205D9884501D04E1EDFE74FF068
:1022D00000094846BDE8F883012807D0022807D046
:1022E000044B00280CBF1846002070470248704776
:1022F000024870479D290008A1290008A529000867
:1023000030B5234B83B004468D1E3BB301A928464C
:10231000AFF30080E8B101992A46FFF7AFFF01460D
:10232000B8B1FFF7A1FF4B68A064012B2BD0002BA5
:1023300001F1040023DBFFF797FF0023C4E9130337
:102340000368002B10DBFFF78FFF2061002003B034
:1023500030BD00230920236103B030BD0D490E4874
:10236000091AC9100191D7E7C3F30360FFF7B4FF5F
:102370000028206114BF0020092003B030BD0123D4
:10238000C4E91303DCE7002323610520DFE700BF76
:1023900000000000AC530008345200080368DA075C
:1023A00010B5044606D49B0700F1480009D500F09B
:1023B0004BFC2368590709D51A070ED5DB0613D540
:1023C00010BD00F039FC23685907F5D404F1D000A2
:1023D00000F042FC23681A07F0D404F5A87000F05E
:1023E00043FC2368DB06EBD404F5E870BDE810403D
:1023F00000F07EBC0346006800B11844704700BF7F
:1024000009207047704700BF70B504460E46316C16
:102410002046FFF775FF054688B9336C6361324685
:1024200023692146012098470828F0D0072806D1C3
:102430002846316CFFF7E6FF301D00F0F1FB00F09D
:1024400065FE00BF2DE9F0470D1D064614460FCD71
:10245000ADF5727D0DF10C0CACE80F000FCDACE8C2
:102460000F000FCDACE80F0095E80F0002ADF76844
:10247000D6F818808CE80F0000232B6021E02B6C2D
:1024800073614FF4F07229467AA800F06BFE33694D
:102490007AAA314650469847889BCDE90058214694
:1024A0006B648146334632460120B8470446E8B99A
:1024B0004FF4F0727AA9284600F054FEB9F1080FE3
:1024C0001BD1296C3046FFF71BFF09345FFA84FAF1
:1024D00081460028D3D0AB6B4AF01001CDE90058FB
:1024E00032466B6401203346B84708B14FF0090902
:1024F00048460DF5727DBDE8F087B9F1070FF5D1BB
:102500002046296CFFF77EFF03A800F089FB00BF7F
:10251000406C7047F0B5CB6B0B640E1D0F46054643
:102520000FCEF9B001AC0FC40FCE0FC40FCE0FC445
:1025300096E80F004FF0FF3684E80F00009606E0A3
:102540002B696A46294698470828044608D11099FD
:102550002846FFF7D5FE0028F2D0092079B0F0BD5B
:102560006846FFF71BFF062CF7D139462846FFF7D0
:102570004BFF00BF30B4DD6BC160826119461D6442
:10258000002230BC5EE700BF70B5C66843690B64CB
:10259000AEB903690A4604460D4601460220984733
:1025A000072805D008280FD129462046FFF72CFF21
:1025B0003046296CFFF726FF281D00F031FB012271
:1025C000FFF740FF00F0A2FD00F0A0FDC2681AB1C5
:1025D000CA6B0A64002235E79CE700BF704700BF62
:1025E000836801460BB1012018477047012912D0BA
:1025F00009D873B90F2A0CD800EB82021846536829
:10260000009A136070470339012994BF012002200A
:102610007047022070470846704700BF10B584B06D
:10262000002303AC0A4600941946FFF7DFFF039826
:1026300004B010BD012912D009D873B90F2A0CD8E3
:1026400000EB8200009A1268426018467047033916
:10265000012994BF012002207047022070470846DC
:10266000704700BF10B584B0002303AC0392009400
:102670000A461946FFF7DEFF04B010BDF0B5D36B74
:102680001364151D8C4606460FCDADF50F7D17ACB6
:102690000FC40FCD0FC40FCD0FC495E80F004FF03E
:1026A000FF3784E80F006546169710E0FFF7DAFF62
:1026B000294616A8B047034616AA6946082083B9DA
:1026C000049B9847052804460CD0092809D0269970
:1026D0006846FFF715FE03466A460C2116A8002B34
:1026E000E4D0092416A8FFF759FE20460DF50F7D0A
:1026F000F0BD00BF2DE9F04FCC6C89B00D4654F809
:10270000041B0694174600F003081E46002B79D0E0
:102710000B0CDAB209048DF81D30022304EB82049D
:1027200005918DF81C302B6DB8F1020F08BFAC6B12
:1027300013F001030CD0384605A900F073FB18B95B
:10274000082009B0BDE8F08F092009B0BDE8F08F7E
:10275000D4F800A0BAF1000FEDD0019300F0080307
:102760000293022E4AD0B4F800A0B4F802900434C8
:10277000AA6C29F0010B0F2138469344FFF74EFF56
:10278000834539D82AF001025A44824294BF00207E
:1027900001204FEA490303F002030AF0010A43EA69
:1027A0000A03012B49D0022B32D0002BCCD1B8F137
:1027B000000F02D0002840F0CD800434D4F800A0EF
:1027C000BAF1000FCDD105A9384600F02BFB002847
:1027D000BAD1019B002BB3D00F213846FFF71EFF63
:1027E0000E2102463846FFF73DFF38466A4A0F2160
:1027F000FFF738FF0720A8E70020CAE7D4F80490C5
:102800000834B5E7090203230591ADF81C308AE7C7
:10281000236823F0004BB8F1000F45D128B1029A8C
:10282000002A5CD0BBF1000F74D0002B00DA043416
:102830000BF1010B04EB8B04C0E7B8F1000F19D1C9
:10284000B0B1D4E90023991C4FEAD2723FF47CAFB7
:1028500005F158010133049100F09080201DFFF72D
:10286000C9FD04AB01462846AFF3008000285BD1C8
:102870000834A3E70D213846D5F82090FFF7CEFEA7
:102880008145F5D1AB6A9C42F2D12046FFF7ECFCC2
:102890000F2102463846FFF7E5FE38462A4600215A
:1028A000FFF7E0FE072050E70D213846D5F82090CD
:1028B000FFF7B4FE814501D02368B6E7AB6A9C42BE
:1028C000FAD104220021C5E90B12A318C5F828B0DB
:1028D0006B6323688B4259DB01230193A8E705F161
:1028E0005803CDF80C8004F1040AB04691461E4608
:1028F0000DE00496FFF77EFD04AB0146002228465A
:10290000AFF3008009F101090AF1040AE8B9D945D9
:102910005046EED138460D21FFF780FE049B286219
:10292000C5E90934062010E781460D213846FFF736
:1029300075FEB9F1020F286225D12B46049A43F89F
:102940002C2F6B62AC620620FFE646462368DDF85A
:102950000C806AE72046FFF787FC04340246AC632C
:1029600028461446AFF3008000283FF4EDAE384609
:1029700022460F21FFF776FE0720E6E638460D21B6
:10298000FFF74CFE2862049B6B62DBE70BF1010052
:1029900004EB80007AE700BF000000000023A9E6F6
:1029A0000123A7E60223A5E62DE9F0430646C3B0BE
:1029B00015461C46042900F2B980DFE801F09A535D
:1029C000B7290300002C40F0B180102A00F2AE803D
:1029D0000368D80600F1F38020AF384600F092F982
:1029E000B06B0023012404FA03F22A42014604D00A
:1029F00051F8042B47F8232008460133042BF2D169
:102A0000B063384600F074F9002043B0BDE8F083AD
:102A1000032C40F08B8094B204EB1243102B4FEA4E
:102A2000124500F2838003681F0700F1D08020AFB9
:102A3000384600F03BF907EBC501B56B54B10B46C6
:102A4000E81A01EBC401E4001A5843F8042B8B4246
:102A5000FAD125443846B56300F006F9002043B0AA
:102A6000BDE8F083012C4FEA124895B25AD0052CEC
:102A70005CD108EB0509B9F1200F57D8B8F10F0F59
:102A800077D9A946002D40F08880B36B6DB320AF95
:102A90004FF0000907EBC807043F03EBC50553F8E7
:102AA000041B47F8041FAB42F9D1B9F1000F0FD056
:102AB0006F464146102938BF102107EBC101843908
:102AC00003EBC90553F8040B41F8040FAB42F9D1ED
:102AD000012C00F08480B8F10F0FB56345D9B9F12E
:102AE000000F02D0684600F0B7F8002043B0BDE800
:102AF000F083DCB9876B2346012094B206F1040C05
:102B000000FA03F22242394604D051F8042B4CF863
:102B100023200F460133102BF2D115F40050E4D1DD
:102B2000B76304E008EB0503102B03D9022043B080
:102B3000BDE8F083B8F10F0FF8D83368DA0706D58F
:102B4000304623F0030340F8483B00F079F820AF0B
:102B5000384600F075F8B36B002D99D11D46043549
:102B6000B563384600F068F8BFE720A800F06CF8BD
:102B7000B5E7B9F1100F40D9A9F110093368D907A9
:102B800008D523F00103304643F0020340F8483BE8
:102B900000F05EF8B9F1000F32D033685A0720D444
:102BA000B8F10F0F25D96F463846C8F1100500F06F
:102BB00057F8002DB36B7FF77CAF20AF6AE723F0A7
:102BC0001003336006F5E87000F09CF804E723F08A
:102BD0000803036000F5A87000F068F827E720AF4D
:102BE000BDE7304623F0040340F8D03B00F038F84E
:102BF000D6E720A800F02CF8D5E74FF00009BDE794
:102C0000B8F10F0F3FF641AF20AF384600F020F883
:102C1000B36B002D7FF43CAF384600F015F864E745
:102C200000F1340191E838009C46A6464CF8045D5A
:102C300090E8FF0FE54600BD90EC210B704700BF08
:102C400080EC210B704700BF90EC200B704700BF59
:102C500080EC200B704700BFD0EC200B704700BF0A
:102C6000C0EC200B704700BFF0EC0201F0EC021149
:102C7000F0EC0221F0EC0231F0EC0241F0EC0251F8
:102C8000F0EC0261F0EC0271F0EC0281F0EC0291E8
:102C9000F0EC02A1F0EC02B1F0EC02C1F0EC02D1D8
:102CA000F0EC02E1F0EC02F1704700BFE0EC020151
:102CB000E0EC0211E0EC0221E0EC0231E0EC024138
:102CC000E0EC0251E0EC0261E0EC0271E0EC028128
:102CD000E0EC0291E0EC02A1E0EC02B1E0EC02C118
:102CE000E0EC02D1E0EC02E1E0EC02F1704700BF61
:102CF000B0FC0181B0FC0191B0FC01A1B0FC01B1BC
:102D0000704700BFA0FC0181A0FC0191A0FC01A1C3
:102D1000A0FC01B1704700BFEC4600B52DE90050A2
:102D20002DE9FF1F4FF000032DE90C0001A9FFF76B
:102D3000F1FBDDF840E012B0704700BFEC4600B593
:102D40002DE900502DE9FF1F4FF000032DE90C0085
:102D500001A9FFF719FCDDF840E012B0704700BF91
:102D6000EC4600B52DE900502DE9FF1F4FF00003A0
:102D70002DE90C0001A9FFF729FCDDF840E012B0B5
:102D8000704700BFEC4600B52DE900502DE9FF1F4C
:102D90004FF000032DE90C0001ABFFF7EBFBDDF872
:102DA00040E012B0704700BFEC4600B52DE900507E
:102DB0002DE9FF1F4FF000032DE90C0001AAFFF7DA
:102DC0005DFCDDF840E012B0704700BF027A7AB9CE
:102DD000437AA3B14268013B10B4437213680321E4
:102DE000141D01721A024460026010BC180E704774
:102DF0000368013A02721A020260180E7047B0208E
:102E0000704700BF00B585B003AA002300921946A1
:102E10000C22FFF7EBFB039805B05DF804FB00BF45
:102E2000F0E700BF2DE9F043054685B00E464FF0B0
:102E300000083046FFF7CAFFB028044600F0B28011
:102E4000070620D500F0F003802B4DD0902B36D014
:102E5000A02B60D0B02B74D0C02B00F08B8000F082
:102E6000F803D02B0BD100F00702013242F400220C
:102E7000052301212846FFF797FD0028D9D0092016
:102E800005B0BDE8F0830DF10C0900231946870059
:102E9000CDF800900D222846FFF7A8FBFFB2039B58
:102EA000CDF80090043760064CBFDF1BFF180023ED
:102EB00019460D2228460397FFF7BCFBB9E700F03F
:102EC0000D030D2BDBD003AF002300F00F021946DA
:102ED00000972846FFF78AFB0023009719460D222A
:102EE0002846FFF7A7FBA4E73046FFF76FFF240251
:102EF0002043B0F5004FC2D004010023A2B219460E
:102F00002846FFF751FD0028B9D114F4004F18BF2F
:102F10004FF001088DE7C24302F007034FF47F62D0
:102F20001A41010702F47F624FF0000348BF42F4E8
:102F3000804219462846FFF737FD00283FF479AF55
:102F40009DE7B12833D0B22800F08B80B32839D068
:102F500000F0FC03B42B92D000F0070201320123F1
:102F600042F4002219462846FFF71EFD00283FF4D0
:102F700060AF84E7C62842D0C7284CD000F0F803E1
:102F8000C02B5BD0C82860D0C9287FF478AF30460A
:102F9000FFF71CFF020300F00F0002F47022013063
:102FA000024365E7B8F1000F18D0002068E730460B
:102FB000FFF70CFF024600283FF461AF10F0F0036A
:102FC000D0D05CE73046FFF701FF010300F00F00AF
:102FD00001F47021421C01230A43C3E703AC4346BA
:102FE0000E22414600942846FFF700FB0094284635
:102FF00043460F224146FFF71DFB404640E730465F
:10300000FFF7E4FE010300F00F0001F47021421C01
:1030100003230A43A6E73046FFF7D8FE02460028FE
:103020003FF42DAF10F0F0037FF429AF04212846C0
:10303000FFF7BAFC00283FF4FCAE20E700F00F02D7
:103040000132032342F420228CE73046FFF7BEFE14
:1030500000F0F00200F00F031032013343EA0232B5
:1030600006E700230DF10C090D221946CDF800905A
:103070002846FFF7BBFA3046FFF7A8FE02064FF0DE
:1030800002070CD5039B00F07F00B8400344304694
:103090000393FFF79BFE030607F10707F2D4039B98
:1030A000CDF8009000F07F0403F50172BC400023CE
:1030B000144419460D2228460394FFF7BBFAB8E6DC
:1030C00010B5C26C84B0536803248DF80C401B0209
:1030D00002F108040846D279019301A902948DF8FF
:1030E0000D20FFF79FFE04B010BD00BF08B5FFF72D
:1030F00097FE806C08BD00BF08B5FFF791FEC06C5D
:10310000C379023300EB830008BD00BF08B5062079
:1031100000F0FAFA0120FEF723FA00BF70B50D4E59
:103120000D4D761BB61006D00024013455F8043B33
:103130009847A642F9D1094E094D761BFEF70EFAC3
:10314000B61006D00024013455F8043B9847A64237
:10315000F9D170BD305200083052000834520008D6
:1031600030520008844641EA000313F003036DD196
:10317000403A41D351F8043B40F8043B51F8043B3A
:1031800040F8043B51F8043B40F8043B51F8043B41
:1031900040F8043B51F8043B40F8043B51F8043B31
:1031A00040F8043B51F8043B40F8043B51F8043B21
:1031B00040F8043B51F8043B40F8043B51F8043B11
:1031C00040F8043B51F8043B40F8043B51F8043B01
:1031D00040F8043B51F8043B40F8043B51F8043BF1
:1031E00040F8043B51F8043B40F8043B51F8043BE1
:1031F00040F8043B403ABDD2303211D351F8043B81
:1032000040F8043B51F8043B40F8043B51F8043BC0
:1032100040F8043B51F8043B40F8043B103AEDD22F
:103220000C3205D351F8043B40F8043B043AF9D280
:10323000043208D0D2071CBF11F8013B00F8013B53
:1032400001D30B8803806046704700BF082A13D360
:103250008B078DD010F003038AD0C3F10403D21A78
:10326000DB071CBF11F8013B00F8013B80D331F8AC
:10327000023B20F8023B7BE7043AD9D3013A11F82C
:10328000013B00F8013BF9D20B7803704B78437097
:103290008B78837060467047F0B4860746D0541E22
:1032A000002A3CD0CAB2034602E014F1FF3436D300
:1032B00003F8012B9D07F8D1032C29D9CDB245EA9B
:1032C00005250F2C45EA054533D9A4F1100636092A
:1032D00003F1200707EB061703F1100242E904553A
:1032E00042E902551032BA42F8D1721C14F00C0FA8
:1032F00003EB021204F00F0613D0331F23F0030375
:103300000433134442F8045B9342FBD106F00304F8
:103310002CB1C9B21C4403F8011B9C42FBD1F0BC88
:10332000704734461346002CF3D1F8E714460346A1
:10333000C2E71A462646E0E700293CD038B551F8E6
:10334000043C0C1F002BB8BFE418054600F086FDB6
:10335000234B1A682AB1A2420DD921686018824213
:1033600023D0626028461C60BDE8384000F078BD7C
:10337000A34203D81A465368002BF9D1116850189C
:10338000A04219D024D821686018834206D0636017
:1033900054602846BDE8384000F062BDD3E9000320
:1033A0000144636021605460F3E7D2E90002014404
:1033B00062602160D6E7704720680144501883425C
:1033C0001160E6D1D3E90003014453601160E0E7E6
:1033D0000C232B602846BDE8384000F041BD00BFFB
:1033E00048180020F8B5CD1C25F0030508350C2D34
:1033F00038BF0C25002D064633DBA94231D82A4FB1
:1034000000F02CFD3A6852B113685B1B04D43FE016
:1034100023685B1B29D522465468002CF8D17968B3
:1034200000293BD029463046FEF7A4F8431C28D09B
:10343000C41C24F00304A04205D0211A3046FEF734
:1034400099F801301DD02560304600F009FD04F1E7
:103450000B0020F00700231DC21A01D01B1AA35035
:10346000F8BD0C2232600020F8BD0B2B05D8A2421B
:10347000636811D05360E7E7144623601C4425605D
:10348000E2E70C233046336000F0EAFC0020F8BD90
:103490000B2BF1D8536814463B60D5E73046FEF756
:1034A00069F87860BEE700BF481800200EB410B578
:1034B000044683B008B1836963B106A8034601904E
:1034C000059AA168204600F037FD03B0BDE8104022
:1034D00003B0704700F0DAFBEFE700BF0FB410B5A0
:1034E0000B4B1C6882B00CB1A36963B105A80346FD
:1034F0000190049AA168204600F01EFD02B0BDE8CC
:10350000104004B07047204600F0C0FBEEE700BF5B
:103510004402002083692DE9F04180460E4633B312
:1035200084682F4B9C4230D02E4B9C4239D02E4B7E
:103530009C4208BFD8F80C40A3891B072AD52369F1
:1035400043B3013EA36816F8015F013BA3609DB33E
:10355000002B07DAA7699F4222462946404623DC12
:103560000A2D21D023685A1C22601D70EAE700F062
:103570008DFBD8F81830D8F80840002BD1D1404640
:1035800000F084FB164B9C42CED1D8F80440A389AE
:103590001B07D4D42146404600F038F90028D0D08B
:1035A00006E0D8F80840C7E700F0D0F80130C9D1EC
:1035B0004FF0FF30BDE8F081002B09DA224640468B
:1035C0000A2100F0C3F80130F2D00A20BDE8F081F2
:1035D00023680A22591C21601A701046BDE8F08148
:1035E0009C5100087C5100085C510008024B0146C8
:1035F0001868FFF78FBF00BF4402002010B580217C
:103600000446FFF7EFFE606440B1031F00227C30E8
:1036100043F8042F8342FBD1002010BD4FF0FF3050
:1036200010BD00BF436C0BB100207047E6E700BF40
:103630001F2970B5054608D8436C16460C464BB199
:1036400053F8240043F8246070BD162202604FF046
:10365000FF3070BDFFF7D2FF08B96B6CF0E74FF099
:10366000FF3070BD1F2938B521D8426C05460C4685
:103670006AB152F8213053B1012B16D0591C10D029
:103680000025204642F824509847284638BD284651
:10369000FDF790FF224601462846BDE83840FDF779
:1036A0008FBF16230360012038BD002038BD1623CC
:1036B00003604FF0FF3038BD1F2921D838B5436C67
:1036C00005460C4683B153F8242003EB84034AB12A
:1036D000511C10D0012A0CD0002520461D609047B7
:1036E000284638BD012038BDFFF788FF28B96B6C2C
:1036F000E9E7032038BD022038BD4FF0FF3038BD68
:103700004FF0FF30704700BF024B01461868FFF7CB
:10371000A9BF00BF44020020024B0A4601461868B8
:10372000FFF786BF44020020034B1868436C0BB1BF
:103730000020704762E700BF44020020024B0146B0
:103740001868FFF7B9BF00BF44020020F8B50D4666
:103750001446064608B1836943B3254B9C422AD0E0
:10376000244B9C4229D0244B9C4208BFF468A38977
:10377000A269A2601A0722D5236903B3226861698E
:10378000D31AEDB299422F4629DD0133A168501CAE
:103790000139A1602060157062699A4216D0A38930
:1037A000DB0701D50A2D11D03846F8BD00F06EFABE
:1037B0000F4B9C42D4D17468D9E7B468D7E721464F
:1037C000304600F023F838B92369D7E72146304660
:1037D00000F032F90028E7D04FF0FF37E4E7214648
:1037E000304600F029F90028F6D122680123CDE700
:1037F0009C5100087C5100085C510008024B0A46AD
:1038000001461868FFF7A2BF440200203B4B70B589
:103810001D6806460C460DB1AB69DBB1384B9C42C6
:103820001ED0384B9C424AD0374B9C4208BFEC68B4
:10383000B4F90C2093B2190718D5206908B313F016
:1038400001022CD0636900225B42A361A26060B3D5
:10385000002070BD284600F019FA294B9C42E0D1A7
:103860006C68B4F90C2093B21907E6D4DD063CD598
:10387000580726D4206942F00803A3819BB2002890
:10388000DDD103F42072B2F5007FD8D03046214656
:1038900000F09AFAA389206913F00102D2D19907A6
:1038A00058BF6269A2600028D2D1B4F90C301A0660
:1038B000CFD543F04003A3814FF0FF3070BDAC681B
:1038C000B6E7616B51B104F14403994204D030462C
:1038D000FFF732FDB4F90C20002363630023206955
:1038E000636022F024022060C5E742F04002092311
:1038F00033604FF0FF30A28170BD00BF4402002052
:103900009C5100087C5100085C5100088B891A0703
:103910002DE9F0410C46804641D44A68002A59DD21
:10392000E66A002E53D00022D8F80050216AC8F869
:10393000002013F4805251D101234046B047431C6C
:103940005FD0A389E66A216A5F0705D56268636B69
:10395000801A0BB1236CC01A024600234046B047C0
:10396000461C45D1D8F80030B4F90C20002B55D0B6
:103970001D2B01D0162B5AD123690022C4E9003235
:10398000616BC8F8005011B304F14403994202D0AE
:103990004046FFF7D1FC00206063BDE8F0810E696E
:1039A000AEB10D680E6099070CBF63690023AD1BB3
:1039B000A3600AE02B463246A76A216A4046B84710
:1039C0000028A5EB000506440ADD002DF2DC0020EE
:1039D000BDE8F0810A6C002AA2DCF8E7606DB3E76D
:1039E000A38943F04003A3814FF0FF30BDE8F0818D
:1039F0002269A389226000226260DA04C0D5606572
:103A0000BEE7D8F80030002B9BD01D2B0CD0162B16
:103A10000AD0A38943F04003A381D9E72169C4E90F
:103A20000013D304ACD5EAE7C8F80050CFE742F062
:103A30004002A281CCE700BF0B6923B310B5044656
:103A400082B008B18369BBB1104B994212D0104BC0
:103A5000994216D00F4B994208BFE168B1F90C307A
:103A60002BB1204602B0BDE81040FFF74FBF002049
:103A700002B010BD6168F1E7019100F007F901990A
:103A8000E2E7A168EAE70020704700BF9C51000808
:103A90007C5100085C51000820B1054B01461868B4
:103AA000FFF7CABF034B0449186800F035B900BFDF
:103AB0004402002058510008393A0008002070479D
:103AC000014900F029B900BF393A000800207047C9
:103AD00070B54A1E682505FB02F50E4605F1740116
:103AE000FFF780FC044640B100210C30666005F110
:103AF00068022160A060FFF7CFFB204670BD00BFC9
:103B00001E4B70B51D68AB69064643B34835D5E911
:103B10000134013B05D51EE0013B5A1C04F1680449
:103B200019D0B4F90C20002AF6D10025144B656693
:103B3000C4E90055A560C4E90455A5612946E360C0
:103B4000082204F15C00FFF7A7FBC4E90D55C4E9A6
:103B50001255204670BD2C682CB12546D7E7284663
:103B600000F010F8D2E704213046FFF7B1FF044619
:103B700028600028F1D10C233360EAE7585100088F
:103B80000100FFFF2DE9F84F334B34491A68816279
:103B900090424FF00003C0E91233036504BF0123D4
:103BA00083610546FFF7ACFF68602846FFF7A8FF72
:103BB000A8602846FFF7A4FF6E68E860002404238D
:103BC000F3607466C6E90044B460C6E90444B461B5
:103BD000214606F15C000822FFF75EFBDFF888B0A3
:103BE000AF68DFF888A0DFF88890DFF888801C4B8A
:103BF000C6F83080C6E9086BC6E90AA92146FB6011
:103C000008227C66C7E90044BC60C7E90444BC6183
:103C100007F15C00FFF740FBEE68124BC7F83080FD
:103C2000C7E9087BC7E90AA92146F3607466C6E9BB
:103C30000044B460C6E90444B46106F15C000822A3
:103C4000FFF72AFB0123C6E9086BC6E90AA9C6F8F3
:103C50003080AB61BDE8F88F58510008C13A0008C8
:103C60000900010012000200D945000801460008C1
:103C70004146000861460008024B0349186800F0FD
:103C80004BB800BF58510008393A0008836903B99E
:103C900078E77047704700BF704700BF704700BFAC
:103CA000704700BF024B0349186800F00FB800BF0F
:103CB00044020020BD3A0008024B0349186800F096
:103CC00005B800BF44020020CD3A00082DE9F041BC
:103CD00010F148071BD088460026D7E90154013D62
:103CE0000FD4A389012B05F1FF3506D9B4F90E30A5
:103CF0000133204601D0C04706436B1C04F1680421
:103D0000EFD13F68002FE8D13046BDE8F0813E4654
:103D10003046BDE8F08100BF2DE9F84310F14807B7
:103D20001FD0884606464FF00009D7E90154013DEF
:103D300011D4A389012B05F1FF3508D9B4F90E3050
:103D400001332146304602D0C04749EA00096B1CC6
:103D500004F16804EDD13F68002FE6D14846BDE884
:103D6000F883B9464846BDE8F88300BF70B50C46F5
:103D7000B1F90E10002996B016461D4613DB6A46AF
:103D8000FDF735FC00280EDB019A02F47042A2F523
:103D90000052B2FA82F252094FF4806300202A6086
:103DA000336016B070BDA38900221B062A6004D5BB
:103DB00040230020336016B070BD4FF480630020B4
:103DC000336016B070BD00BF8A8992070B4606D5D6
:103DD00001F1470201211A60C3E90421704770B55F
:103DE00082B001AB6A460C460646FFF7BFFF00995A
:103DF00005463046FFF7F6FAB4F90C3070B11649B3
:103E0000B162019A0099206043F08003A381C4E964
:103E100004018AB92B43A38102B070BD9A05FBD47B
:103E200023F0030304F1470243F002030121A381BD
:103E30002260C4E90421EFE73046B4F90E10FDF723
:103E4000DBFB10B9B4F90C30E4E7A38923F00303DA
:103E500043F001031BB2DDE7C13A0008704700BF21
:103E6000704700BF09B3F8B51446CAB106460D46FF
:103E700000F036FEA04202D32F463846F8BD214658
:103E80003046FFF7AFFA07460028F6D0224629460B
:103E9000FFF768F930462946FFF74EFA3846F8BD75
:103EA0002746FFF749FA3846F8BD1146FFF79ABA98
:103EB0009368013B002B936011DA10B49469A3421C
:103EC00009DB0A2907D01368581C106019700846CE
:103ED0005DF8044B70475DF8044BFFF737BC13687F
:103EE000581C106019700846704700BF9BB1F8B5A8
:103EF00013440F4606465D1E541E01E0AC4208D036
:103F00003A4614F8011F3046FFF7D2FF431CF5D1A3
:103F1000F8BD0020F8BD0020704700BF936810B5C1
:103F2000144613B95360184610BD00F09DFB0023E2
:103F3000C4E9013310BD00BF2DE9F04F9FB08B469F
:103F400090461C46039018B18369002B00F0B7809F
:103F5000A24B9B4500F0B980A14B9B4500F0C78068
:103F6000A04B9B4504BF039BD3F80CB0BBF80C30AF
:103F7000180740F1B280DBF81030002B00F0AD8064
:103F800030238DF8323098F800300594002120223B
:103F90000B918DF83120944E0127002B00F0878083
:103FA000252B00F01581454603E0252B00F0A3806A
:103FB00025466B786C1C002BF7D1B4EB080A76D041
:103FC0004246534659460398FFF790FF01306ED0A2
:103FD0000B9B6A7853440B93002A68D000234FF060
:103FE000FF3201340693CDE908338DF85B301C9322
:103FF000079205E0069A07FA03F313432C4606934B
:104000002546052215F8011B304600F0B1FCAA46F2
:10401000831B0028EED1069BD90644BF20228DF8D1
:104020005B2021781A0744BF2B228DF85B202A29B8
:1040300066D1059A1168043200290592C0F29D806C
:1040400009916178A51C2E2973D0684C0322204663
:1040500000F08EFC002800F08680001B069B4024A8
:1040600004FA00F00343069305F10108297860483B
:104070008DF83010062200F07BFC002800F08380D1
:104080005C4B002B72D005AB00935A465A4B0398F9
:1040900006A9AFF300808146B9F1FF3F07D00B9B23
:1040A0004B440B9398F80030002B7FF479AFBBF8AA
:1040B0000C305B0618D40B981FB0BDE8F08FFFF7EB
:1040C000E5FD464B9B457FF447AF039BD3F804B017
:1040D000BBF80C3018073FF54EAF59460398FFF771
:1040E00095FB00283FF44CAF4FF0FF30E4E7039B13
:1040F000D3F808B03AE7B4EB080A3FF46FAF5FE7D4
:10410000A1F13002092A88BFA2469CD8099B01E090
:104110002C460135297803EB830302EB4303A1F11D
:104120003002092AAA46F3D92E2904F1020509937F
:104130008BD19AF801102A292FD1059B9AF80210E9
:104140001A6807920433002A05930AF103050AF15D
:10415000020338DB254C032220469A4600F008FC77
:1041600000287FF47AAFA84655467FE7059B0733C2
:1041700023F007030833059391E7494243F0020314
:10418000099106935DE705AB00935A461A4B0398D5
:1041900006A900F0D5F881467EE7A1F130020023A0
:1041A000092A079301D915E05546697803EB830383
:1041B00002EB4303A1F13002092A05F1010AF3D908
:1041C0000235079341E74FF0FF329A4607923CE7EA
:1041D000444603E7AA46013537E700BF9C51000873
:1041E0007C5100085C510008BC510008C451000813
:1041F000C851000800000000ED3E000810B4044C57
:1042000013460A46014620685DF8044BFFF794BE4A
:10421000440200202DE9F0470C4691460A6989685E
:10422000DDF820808A42B8BF0A46C9F8002094F819
:10423000431006461F4611B10132C9F80020236819
:1042400099065CD5D9F800200232C9F8002023680D
:1042500013F0060F19461DD1E1688A1A002AD8BF4B
:10426000194617DD04F1190A002505E0E368D9F8BD
:1042700000209B1AAB420CDD0123524639463046E2
:10428000C047013005F10105F0D14FF0FF30BDE826
:10429000F087216894F84330003318BF01238A0661
:1042A0000AD5E1185A1C302081F84300224494F8C2
:1042B000451082F84310023304F143023946304678
:1042C000C0470130E1D02368A268216903F00603EA
:1042D000042B1DD08A4226DD4FF00009521A91446A
:1042E0001A34002501E04D451DDA012322463946E6
:1042F0003046C047013005F10105F4D1C5E713F0A0
:10430000060F13D094F84330003318BF0123D3E7CE
:10431000D9F80000E3688A42A3EB000323EAE379BB
:10432000DCDC002BDCDC0020BDE8F087E168D9F89C
:1043300000208A1A002AD8BF194693DCAAE700BFDA
:104340002DE9F0430C46097E85B06E2906461746D6
:104350000C98984604F1430E6DD039D9732900F0BA
:10436000F68044D9752900F00481782940F0118144
:1043700078232268DFF858C284F8453001681506B2
:1043800051F8043B016040F1A180D10744BF42F0E5
:1043900020022260002B00F093801022002184F87C
:1043A00043106068A0600028C0F2C880216821F036
:1043B00004012160002B40F0A380002840F0C08061
:1043C0007546082A00F0AC80AEEB0503236141E09E
:1043D000632900F0E5801AD8002938D0582940F028
:1043E000D88084F845102268DFF8E8C1C6E76F2955
:1043F00000F0BF80702940F0CC802268DFF8D0C187
:1044000042F020027823226084F84530B6E7642920
:1044100002D0692940F0BD8022680368110603F1CB
:10442000040557D5196805600B46002959DBDFF8EC
:10443000A4C10A22B5E70368226861691D1D0560F1
:1044400015061B6802D4500600F1BD8019600023D8
:1044500075462361CDF800803B4603AA21463046CD
:10446000FFF7D8FE013020D02A462369394630466E
:10447000C047013019D022680398E368920719D524
:104480001A1A002A16DD04F11909002504E0E36870
:1044900003981A1AAA420DDD01234A4639463046CE
:1044A000C047013005F10105F1D14FF0FF3005B0F3
:1044B000BDE8F0839842B8BF184605B0BDE8F08368
:1044C000226822F020022260102267E7500648BFCF
:1044D0009BB25AE75106A5D5B3F9003005601946DD
:1044E000A3E76168A1602D200029C3F1000384F8CF
:1044F000430002DB22F004022260DFF8D8C00A2267
:10450000754600E00B46B3FBF2F102FB113093421B
:104510001CF8000005F8010DF4D2082A7FF454AF0E
:104520002368DB077FF550AF626823699A423FF743
:104530004BAF302305F8013C013D45E7002BDFD1AF
:104540009CF8003084F8423004F1420539E70368F2
:104550006268191D01601D680021284600F008FAF4
:10456000002832D0401B60602061002384F8433073
:1045700070E72268036812F0800F03F104051AD077
:104580001B6805606F290CBF08220A22DFF844C0AF
:1045900004E7012384F84210236104F14205E4E7B3
:1045A00003681A68191D0123016004F1420584F8AB
:1045B00042202361D9E712F0400F0DBF1B68056050
:1045C0001B880560DEE7198041E76068CCE700BF23
:1045D000E4510008D051000810B50C46B1F90E1096
:1045E000FCF7F3FF002803DB636D0344636510BD34
:1045F000A38923F48053A38110BD00BF002070471E
:104600002DE9F0411646B1F90C201F46D3050C46A2
:104610000546B1F90E1009D422F48052A2813B461E
:1046200032462846BDE8F041FCF7D3BF0022022302
:10463000FCF7D8FFB4F90C20B4F90E10ECE700BF7A
:1046400010B50C46B1F90E10FCF7CCFFA389421C43
:104650000EBF23F4805343F480536065A38110BDE3
:10466000B1F90E10FCF7B9BF9368002B00F002817E
:104670002DE9F04FB1F90C309BB20C46190783B00D
:104680008246904635D522699AB313F00202D8F8D3
:1046900000603DD00027D4F828B0D4F820C0DFF85F
:1046A000CC923D464D452B463A4628BF4B46614687
:1046B0005046D5B1D847002840F3D280D8F808300A
:1046C0001B1A07442D1AC8F80830002B00F0B780D9
:1046D000D4F820C0D4F828B04D452B463A4628BF20
:1046E0004B4661465046002DE4D1D6E900750836A8
:1046F000D8E721465046FFF789F8002840F030817E
:10470000B4F90C30D8F800609BB213F00202C1D1AA
:1047100013F0010940F0B080A76820684D46002DD5
:1047200054D09A0540F1BC80AF42BB4600F2E7800E
:1047300013F4906F2FD0D4E9041707EB4707A0EBD1
:10474000010B07EBD777681C7F105844B8423A46F4
:1047500084BF07463A465B0540F1E9801146504662
:10476000FEF740FE002800F0F5805A4621690190CE
:10477000FEF7F8FCA289019B22F4906242F08002CD
:10478000A281A7EB0B0203EB0B00676123612060A2
:10479000A2602F46AB465A46494600F039F9A26856
:1047A0002368D21B5B442F46A26023600025D8F803
:1047B0000830DB1BB944C8F80830002B3FD0B4F9EF
:1047C0000C30A76820689BB2002DAAD1D6E90095CD
:1047D0000836A4E70BF1080353E902679B46083348
:1047E000002FF9D03A460A21304600F0C1F80028DF
:1047F00053D00130A0EB06094B46D4E904122068DF
:10480000BB4228BF3B46884203D9A5681544AB424A
:1048100019DC9A427DDC1346A56A216A324650466D
:10482000A847051E1CDDB9EB05096BD00120D8F89F
:1048300008305B1B2E447F1BC8F8083013BB0020D8
:1048400003B0BDE8F08F31462A4600F0E1F8236856
:104850002B44236021465046FFF7EEF80028E2D0B3
:10486000B4F90C3043F040034FF0FF30A38103B0A4
:10487000BDE8F08F0020704733469146104617463A
:104880004E469B46002FA5D00028B5D13A460A21B6
:10489000304600F06DF80028ABD17B1C9946ACE7A0
:1048A0002369834215D36169A94212D82E4BA76AA6
:1048B0009D4294BF2B466FF000434A4693FBF1F3B1
:1048C000504601FB03F3216AB847071EC8DDED1B04
:1048D0006DE7AF4228BF2F463A46494600F098F8A8
:1048E000A3682268DB1B3A44A3602260002BEED150
:1048F00021465046FFF7A0F80028E8D0B0E72F4641
:10490000AB4648E721465046FFF796F800288ED080
:10491000A6E71A463146019300F07AF8019BA16898
:104920002268C91A1A44A16022601D467BE75046DE
:10493000FFF798FA034600287FF423AF2169504619
:10494000FEF7FAFCB4F90C300C2223F08003CAF80D
:10495000002087E70C23CAF80030B4F90C3081E757
:104960004FF0FF306CE700BFFEFFFF7F00FCFF7FD2
:1049700001F0FF01102A2BDB10F0070F08D010F810
:10498000013B013A8B422DD010F0070F42B3F6D114
:10499000F0B441EA012141EA014122F007047FF02D
:1049A00000070023F0E80256083C85EA010586EA84
:1049B000010685FA47F5A3FA87F586FA47F6A5FAC0
:1049C00087F68EB9EED1F0BC01F0FF0102F00702CC
:1049D00032B110F8013B013A83EA010313B1F8D177
:1049E0000020704701387047002D06BF3546033858
:1049F000073815F0010F07D1013015F4807F02BF91
:104A0000013015F4C03F0130F0BC0138704700BFE1
:104A10008842F0B40DD98B1883420AD9841832B178
:104A2000224613F8014D02F8014D9942F9D1F0BC2C
:104A300070470F2A0ED80346541E002AF7D00134BF
:104A40000C44013B11F8012B03F8012FA142F9D1CD
:104A5000F0BC704740EA01039B073BD1A2F110076D
:104A60003F0901F1200606EB071601F1100300F1E2
:104A7000100453F8105C44F8105C53F80C5C44F8D4
:104A80000C5C53F8085C44F8085C53F8045C44F888
:104A9000045C1033B34204F11004EAD17B1C1B0107
:104AA00012F00C0F194402F00F05034415D0043D19
:104AB000AD0803EB850C1C1F0E4656F8047B44F82A
:104AC000047F6445F9D10135AD002B44294402F03F
:104AD0000302B1E7541E0346B1E72A46ACE700BF24
:104AE00051F8043C181F002BBCBF0B58C01870476E
:104AF000747831007278310025733A2575203D3E77
:104B000020004641494C45442041535345525449A5
:104B10004F4E2E0025780A006D61696E28293A20D3
:104B2000546869732069732052494F5421202856D4
:104B3000657273696F6E3A20323032322E31302D09
:104B4000646576656C2D313130312D6762333561A6
:104B50003229006D61696E002A2A2A2052494F5479
:104B6000206B65726E656C2070616E69633A0A2510
:104B7000730A0A002A2A2A2068616C7465642E0A66
:104B8000007363686564756C657228293A207374D4
:104B900061636B206F766572666C6F7720646574F5
:104BA00065637465642C207069643D2568690A003A
:104BB000535441434B204F564552464C4F570049A2
:104BC0006E73696465206973722025640A004E4D16
:104BD000492048414E444C4552004D454D204D41E1
:104BE0004E4147452048414E444C455200425553A2
:104BF000204641554C542048414E444C45520055A6
:104C000053414745204641554C542048414E444C61
:104C10004552004445425547204D4F4E2048414E95
:104C2000444C45520044554D4D592048414E444C4A
:104C30004552000A49535220737461636B206F76AA
:104C40006572666C6F77656400537461636B207086
:104C50006F696E74657220636F72727570746564CB
:104C60002C20726573657420746F20746F70206FD0
:104C70006620737461636B000A436F6E74657874A9
:104C8000206265666F726520686172646661756C2A
:104C9000743A0020202072303A2030782530386C69
:104CA000780A20202072313A2030782530386C780C
:104CB0000A20202072323A2030782530386C780A69
:104CC00020202072333A2030782530386C780A0062
:104CD00020207231323A2030782530386C780A2022
:104CE00020206C723A2030782530386C780A2020E9
:104CF0002070633A2030782530386C780A20207094
:104D000073723A2030782530386C780A0A0046539E
:104D1000522F4641523A0020434653523A203078AF
:104D20002530386C780A0020484653523A203078B3
:104D30002530386C780A0020444653523A203078A7
:104D40002530386C780A0020414653523A2030789A
:104D50002530386C780A0020424641523A2030789B
:104D60002530386C780A004D4D4641523A20307853
:104D70002530386C780A004D697363004558435FED
:104D80005245543A2030782530386C780A00416317
:104D900074697665207468726561643A2025686973
:104DA00020222573220A0048617264206661756CB6
:104DB00074206F6363757272656420696E20495355
:104DC00052206E756D6265722025640A004174740C
:104DD000656D7074696E6720746F207265636F6EA5
:104DE00073747275637420737461746520666F7276
:104DF00020646562756767696E672E2E2E00496EA6
:104E0000204744423A0A2020736574202470633D91
:104E10003078256C780A20206672616D6520300A32
:104E2000202062740A000A49535220737461636B34
:104E3000206F766572666C6F776564206279206199
:104E400074206C65617374202564206279746573C5
:104E50002E0A0048415244204641554C54204841B6
:104E60004E444C45520002020000211042206330A3
:104E70008440A550C660E770088129914AA16BB1B2
:104E80008CC1ADD1CEE1EFF131121002733252225A
:104E9000B5529442F772D662399318837BB35AA302
:104EA000BDD39CC3FFF3DEE362244334200401142A
:104EB000E664C774A44485546AA54BB52885099552
:104EC000EEE5CFF5ACC58DD55336722611163006FA
:104ED000D776F6669556B4465BB77AA719973887A2
:104EE000DFF7FEE79DD7BCC7C448E5588668A778BA
:104EF0004008611802282338CCC9EDD98EE9AFF9F2
:104F0000488969990AA92BB9F55AD44AB77A966A99
:104F1000711A500A333A122AFDDBDCCBBFFB9EEB41
:104F2000799B588B3BBB1AABA66C877CE44CC55C69
:104F3000222C033C600C411CAEED8FFDECCDCDDD91
:104F40002AAD0BBD688D499D977EB66ED55EF44E39
:104F5000133E322E511E700E9FFFBEEFDDDFFCCFE1
:104F60001BBF3AAF599F788F8891A981CAB1EBA135
:104F70000CD12DC14EF16FE18010A100C230E320B1
:104F80000450254046706760B9839893FBA3DAB359
:104F90003DC31CD37FE35EF3B1029012F322D23201
:104FA0003542145277625672EAB5CBA5A895898529
:104FB0006EF54FE52CD50DC5E234C324A014810451
:104FC0006674476424540544DBA7FAB79987B897F9
:104FD0005FE77EF71DC73CD7D326F2369106B016A1
:104FE00057667676154634564CD96DC90EF92FE9B9
:104FF000C899E9898AB9ABA94458654806782768F1
:10500000C018E1088238A3287DCB5CDB3FEB1EFB98
:10501000F98BD89BBBAB9ABB754A545A376A167A40
:10502000F10AD01AB32A923A2EFD0FED6CDD4DCD68
:10503000AABD8BADE89DC98D267C076C645C454C90
:10504000A23C832CE01CC10C1FEF3EFF5DCF7CDF38
:105050009BAFBABFD98FF89F176E367E554E745EE0
:10506000932EB23ED10EF01E232120657869742064
:1050700025693A20706F776572696E67206F666682
:105080000A00000003000240020300000008024082
:10509000020A000003080240020D0000031402404F
:1050A0000209000005140240020F00000A14024029
:1050B00002080000FFFFFFFF001200000030014067
:1050C000070002400600024005000240FFFFFFFF0C
:1050D0000505050500100000010000000034014036
:1050E000061002400510024002100240FFFFFFFFC1
:1050F000050505050020000001000000000000403B
:10510000FFFFFFFF01000000001C000000480040FE
:1051100000000400090C0240080C024007070027A9
:105120000014014020000000091802400E1802403F
:10513000080801470044004000000200060C02403D
:10514000050C02400707002618020020D3210008A2
:10515000CD210008C5210008480200200000000001
:10516000000000000000000000000000000000003F
:10517000000000000000000000000000000000002F
:10518000000000000000000000000000000000001F
:10519000000000000000000000000000000000000F
:1051A00000000000000000000000000000000000FF
:1051B000000000000000000000000000232D302B44
:1051C00020000000686C4C0065666745464700009B
:1051D000303132333435363738394142434445462D
:1051E00000000000303132333435363738396162EF
:1051F00063646566000000009D210008E51D00084D
:1052000008B10181B0B000840000000008B1018144
:10521000B0B000840000000008B10181B0B000848B
:105220000000000008B10181B0B00084000000005F
:04523000310500083C
:10523400C4AFFF7FC8FFFF7FC6AFFF7FCCFFFF7FF8
:10524400C8AFFF7FB0B0AA800CB1FF7FB0AD0680BD
:10525400DCB2FF7F0100000024BEFF7FA908B180FB
:105264003CBEFF7FB0B0A88048BEFF7FB0B0AA802C
:1052740070BEFF7FB0B0A880B0BEFF7FAB08B18026
:10528400DABEFF7FA908B180EEBEFF7FB0B0AA806E
:105294000ABFFF7FB0AC01805EBFFF7FAB08B18067
:1052A400A4BFFF7FB0B0A880D4BFFF7FAB08B1809C
:1052B4005CC0FF7FB0B0A88068C0FF7FA908B18040
:1052C40090C0FF7FAB08B18018C1FF7FAF08B180E9
:1052D400A8C1FF7FA908B180BCC1FF7FB0B0AC807A
:1052E400FCC1FF7FAB08B1804CC2FF7FB0A80F8028
:1052F40068C2FF7F0100000004D0FF7FB0A90280D4
:1053040098D0FF7FB0B0A880E8D0FF7F01000000F4
:10531400F4D0FF7FB0B0AA8028D1FF7FAE71B280F5
:10532400ECD1FF7F01000000E8D1FF7FAB3F388064
:1053340040D2FF7F010000004CD2FF7FB0B0AA80B2
:1053440088D2FF7F0100000030D3FF7FAB0EB28014
:10535400A0D3FF7FB0AF088040D6FF7F01000000DC
:1053640044D6FF7FAD3F0280B4D8FF7F0100000028
:1053740090DAFF7F00840480A4DAFF7F010000003C
:10538400A0DAFF7FB0AD048034DDFF7FB0A80380D6
:1053940058DDFF7F80FEFF7F5CDDFF7F84FEFF7FA3
:0853A40068DDFF7F010000003D
:1053AC007EA1A2A3AABBCCAFBFA0B07DD6D7D8306C
:1053BC005018002001010000000000000000000057
:1053CC0000000000000000000000000000000000D1
:1053DC0000000000000000000000000000000000C1
:1053EC000A00000048020020000000009C51000848
:1053FC007C5100085C510008000000000000000017
:10540C000000000000000000000000000000000090
:10541C000000000000000000000000000000000080
:10542C000000000000000000000000000000000070
:10543C000000000000000000000000000000000060
:0C544C000000000000000000282100000B
:0454580052494F5412
:0400000508000BE103
:00000001FF
