:100000000C94B0000C94F7000C94F7000C94F700DB
:100010000C94F7000C94F7000C94F7000C94F70084
:100020000C94F7000C94F7000C94F7000C94F70074
:100030000C94F7000C94F7000C94F7000C94F70064
:100040000C94F7000C945B040C9487040C94B30498
:100050000C94F7000C94F7000C94F7000C94F70044
:100060000C94F7000C947B020C94F7000C94CF02D4
:100070000C94F7000C94F7000C94F7000C94F70024
:100080000C94F7000C94F7000C94F7000C94F70014
:100090000C94A5020C94F7000C94FF020C94F7004A
:1000A0000C94F7000C94F7000C94DF040C940B05EF
:1000B0000C9437050C94F7000C94F7000C94F7009F
:1000C0000C94F7000C94F7000C94F7000C94F700D4
:1000D0000C94F7000C94F7000C94F7000C94F700C4
:1000E0000C94F7000C946A0E0C9402010C942F08E7
:1000F0000C945E0C0C9408010C94E2060C94920192
:100100000C94B0090C9463010C94570E0C94D30614
:10011000464154414C204552524F523A20424144AC
:100120004953525F766563742063616C6C65642C1F
:1001300020756E70726F63657373656420496E74A9
:100140006572727570742E0A53544F50204578654D
:10015000637574696F6E2E0A0000020163019201DB
:10016000832D8093510A84B78093520A14BE0FB630
:10017000F894A89580916000886180936000109247
:1001800060000FBE11241FBECFEFD1E2DEBFCDBF96
:1001900000E00CBF13E0A0E0B2E0EAEDF4E200E022
:1001A0000BBF02C007900D92AE35B107D9F72AE018
:1001B000AEE5B3E001C01D92A135B207E1F710E052
:1001C000C0EBD0E000E006C021970109802FFE01BE
:1001D0000E944D0FCD3AD10780E00807A9F70E9491
:1001E000F9000C946B120E94FD000C946B120C949D
:1001F000EF0C0E9463050C94E5060E9423010E9407
:100200006201FDCF60E070E08EE593E00C94980110
:1002100061E070E08DE090E00E947A0164EF71E0AF
:1002200080E090E00E94800160E070E08DE090E06E
:100230000E947A0164EF71E080E090E00E9480010A
:1002400080E090E00895CF92DF92EF92FF920F93BB
:100250001F93CF93DF931F921F92CDB7DEB78AE033
:1002600090E09A8389838AE3C82E82E0D82ECE015B
:1002700001967C0108E011E028E030E046E060E80B
:1002800072E088EA93E00E94150661E070E080E089
:1002900090E00E94800161E070E08DE090E00E94BB
:1002A00069016EE372E088E296E00E94B3010F906C
:1002B0000F90DF91CF911F910F91FF90EF90DF9002
:1002C000CF900895089560E070E088E296E00C9485
:1002D00098016115710529F06230710521F462E021
:1002E00003C060E001C063E0FC01E55BFD4F80817D
:1002F0000C943D03855B9D4FFC0180810C9497031A
:100300009B01AC01A8EEB3E00E941B0F22E0969582
:100310008795779567952A95D1F720E030E0A90178
:100320000C94600C60E070E082E796E00C94980119
:10033000FC017183608308950F931F93CF93DF9324
:100340008C01EB01CB010E94640FAC01BE01F801EE
:10035000808191810E945802CE01DF91CF911F913F
:100360000F910C94640F0F931F93CF93DF93EC01C5
:100370000E949C018C0161E972E0CE010E949C0107
:10038000C8010296DF91CF911F910F9108950FB68A
:10039000802DF894807890E008950FB6802D7894A1
:1003A000807890E00895FF920F93F82E0FB7087FA2
:1003B000F02AFFBE0F91FF9008958091BC0690E057
:1003C000089521E02093BC06FC01EE0FFF1FE755C6
:1003D000FD4F0190F081E02D6681880F991F880FF5
:1003E000991FDC01A254B94FED91FC91119712961F
:1003F0008D919C91139719950C94EA0DEF92FF92B1
:100400000F931F93CF93DF9379018230910508F00A
:1004100046C020E030E0E091BD06EE2319F0215007
:100420003109C9F7FC01EE0FFF1FEE0FFF1FE25469
:10043000F94FF182E08213830283880F991FFC0138
:10044000E755FD4FC081D1811982188286E08A83E9
:10045000DB01CA0180589B47A14EBF4FE3E0880FE4
:10046000991FAA1FBB1FEA95D1F79A01AB01F4E0CF
:10047000220F331F441F551FFA95D1F7BC01CD0140
:100480000E94F90E215031093D832C83EF2811F091
:1004900088ED01C088E4898380E090E002C08FEF9E
:1004A0009FEFDF91CF911F910F91FF90EF900895F3
:1004B000CF93DF9321E0082E01C0220F0A94EAF7C0
:1004C000DB01460F571F880F991FFC01E755FD4FB1
:1004D000A417B50769F0C081D181888185FFFDCF60
:1004E0008091BD06822B8093BD068D918E83F0CFC7
:1004F000DF91CF9108951F920F920FB60F921124A2
:100500000BB60F922F933F934F935F936F937F930D
:100510008F939F93AF93BF93EF93FF9380E090E00F
:100520000E94E101FF91EF91BF91AF919F918F9157
:100530007F916F915F914F913F912F910F900BBEE3
:100540000F900FBE0F901F9018951F920F920FB62D
:100550000F9211240BB60F922F933F934F935F93FB
:100560006F937F938F939F93AF93BF93EF93FF937B
:1005700081E090E00E94E101FF91EF91BF91AF9186
:100580009F918F917F916F915F914F913F912F91AB
:100590000F900BBE0F900FBE0F901F9018951F92DB
:1005A0000F920FB60F9211240BB60F922F933F9319
:1005B0004F935F936F937F938F939F93AF93BF936B
:1005C000EF93FF9381E08093BC068091BD068E7F00
:1005D0008093BD060E94EA0DFF91EF91BF91AF910C
:1005E0009F918F917F916F915F914F913F912F914B
:1005F0000F900BBE0F900FBE0F901F9018951F927B
:100600000F920FB60F9211240BB60F922F933F93B8
:100610004F935F936F937F938F939F93AF93BF930A
:10062000EF93FF9381E08093BC068091BD068D7FA0
:100630008093BD060E94EA0DFF91EF91BF91AF91AB
:100640009F918F917F916F915F914F913F912F91EA
:100650000F900BBE0F900FBE0F901F901895282F74
:1006600022952F7033E0239FC0011124273010F40E
:100670008296089583519F4F0895CF93DF93982FCB
:100680009F70C1E0D0E001C0CC0F9A95EAF76230CC
:10069000A9F0633069F0611120C00E942F03FC01B2
:1006A0002291C0952C232083FC012081C22311C0FC
:1006B0000E942F03FC018291C82B0BC00E942F03C4
:1006C000FC0122913C2F309523232083FC012081C3
:1006D000C22BC08380E090E002C08FEF9FEFDF91DC
:1006E000CF910895CF93C82F0E942F03FC01408122
:1006F000CF7021E030E001C0220FCA95EAF7242B29
:100700002083CF910895CF93C82F0E942F03FC011F
:100710004081CF7021E030E002C0220F331FCA9524
:10072000E2F72095309524232083CF910895672BFD
:1007300011F00C9472030C94830321E02093BC0607
:100740002CE0AC01249FC001259F900D1124DC01F9
:10075000AA5FBD4F1296ED91FC9113972081AB01DA
:100760004F5F5F4F81E090E001C0880F4A95EAF744
:100770008095822380831696ED91FC9117971896A9
:100780008D919C91199719950C94EA0D8F929F92D7
:10079000AF92BF92CF92DF92EF92FF920F931F938F
:1007A000DC010297D8F4EDEAF2E090E0C12C84E29B
:1007B000D82E84EFE82EF12C46015701019004C099
:1007C000B694A794979487940A94D2F79F5F84165F
:1007D0009506A606B70629F0953071F78FEF9FEFC3
:1007E0001EC08CE08A9FF0018B9FF00D1124EA5F00
:1007F000FD4FA081B1811C9211961C921197129607
:100800001C92129715961C921E921497378326837A
:1008100011870087928711969C9380E090E01F914A
:100820000F91FF90EF90DF90CF90BF90AF909F908F
:100830008F900895633071055CF52CE0289FF001DE
:10084000299FF00D1124EA5FFD4F80819181DB012A
:100850001496AA0FBB1FA80FB91F11965C934E9355
:10086000A481B5812C916F5F7F4F81E090E001C042
:10087000880F6A95EAF7982F909592239C930280AF
:10088000F381E02D9081892B808380E090E00895B2
:100890008FEF9FEF08952CE0AC01249FC001259FAE
:1008A000900D1124FC01EA5FFD4F0190F081E02DD5
:1008B0008481958108951F920F920FB60F92112493
:1008C0000BB60F922F933F934F935F936F937F934A
:1008D0008F939F93AF93BF93EF93FF9360E070E08C
:1008E00080E090E00E949D03FF91EF91BF91AF9156
:1008F0009F918F917F916F915F914F913F912F9138
:100900000F900BBE0F900FBE0F901F9018951F9267
:100910000F920FB60F9211240BB60F922F933F93A5
:100920004F935F936F937F938F939F93AF93BF93F7
:10093000EF93FF9361E070E080E090E00E949D0300
:10094000FF91EF91BF91AF919F918F917F916F91A7
:100950005F914F913F912F910F900BBE0F900FBE63
:100960000F901F9018951F920F920FB60F9211249F
:100970000BB60F922F933F934F935F936F937F9399
:100980008F939F93AF93BF93EF93FF9362E070E0D9
:1009900080E090E00E949D03FF91EF91BF91AF91A5
:1009A0009F918F917F916F915F914F913F912F9187
:1009B0000F900BBE0F900FBE0F901F9018951F92B7
:1009C0000F920FB60F9211240BB60F922F933F93F5
:1009D0004F935F936F937F938F939F93AF93BF9347
:1009E000EF93FF9360E070E081E090E00E949D0350
:1009F000FF91EF91BF91AF919F918F917F916F91F7
:100A00005F914F913F912F910F900BBE0F900FBEB2
:100A10000F901F9018951F920F920FB60F921124EE
:100A20000BB60F922F933F934F935F936F937F93E8
:100A30008F939F93AF93BF93EF93FF9361E070E029
:100A400081E090E00E949D03FF91EF91BF91AF91F3
:100A50009F918F917F916F915F914F913F912F91D6
:100A60000F900BBE0F900FBE0F901F9018951F9206
:100A70000F920FB60F9211240BB60F922F933F9344
:100A80004F935F936F937F938F939F93AF93BF9396
:100A9000EF93FF9362E070E081E090E00E949D039D
:100AA000FF91EF91BF91AF919F918F917F916F9146
:100AB0005F914F913F912F910F900BBE0F900FBE02
:100AC0000F901F901895E1E6F0E080E88083108297
:100AD0000E94DF0C0E948C0E0C94CD01EF92FF92CD
:100AE0000F931F93CF93DF93EC018B010E94C701FB
:100AF0007C0188819981892B41F48FEF9FEF998345
:100B00008883C7010E94D3011FC0012B01F100910E
:100B1000EE091091EF0963E0C8010E948407888103
:100B20009981019641F4C801069699838883F8015A
:100B30001782168204C0B801CE010E94F405C701D5
:100B40000E94D3010E947C0D81E090E005C0C701A6
:100B50000E94D30180E090E0DF91CF911F910F912F
:100B6000FF90EF900895EF92FF920F931F93CF9312
:100B7000DF938C010E94C7017C01D801ED91FC91AB
:100B8000309739F0EF3FBFEFFB0761F4F8011182B6
:100B90001082C701DF91CF911F910F91FF90EF90CD
:100BA0000C94D30180819181D8018D939C93EF01A6
:100BB00026976CE0CE010E948407F8018081918124
:100BC000892B21F48FEF9FEF91838083CB81D0E03D
:100BD000C7010E94D301CE01DF91CF911F910F91E8
:100BE000FF90EF900C941508FB0122812B3028F028
:100BF00069E473E083E00E940A076381AF014A5F02
:100C00005F4FDC012D913C912115310541F0D90157
:100C1000169713967C91671710F0C901F2CF3783AE
:100C20002683FC015183408308952F923F924F9277
:100C30005F926F927F928F929F92AF92BF92CF926C
:100C4000DF92EF92FF920F931F93CF93DF9300D029
:100C50001F92CDB7DEB7403198F54B013AE1831AC8
:100C60009108DC01A80DB91DBC83AB83FC0123FFF7
:100C700009C0AB81BC81EA17FB0730F4F183E08344
:100C80003296F7CF918380831601370158012A836A
:100C900049832B017C010E94C7016C01E2EFF9E05E
:100CA00001E010E081919191892B61F00F5F1F4F5E
:100CB00001321105B9F7C6010E94D3018FEB5BC069
:100CC00084EE59C0F801EE0FFF1FE051F64F8B8103
:100CD0009C8191838083DC0115961C930E9314975D
:100CE0009401A701B301C5010E94FA0CEB81FC81BC
:100CF00091838083F58AE48A518E408E378A268AD2
:100D00002981238312821782168211861086138608
:100D1000128615861486178616868FEF9FEF918BA5
:100D2000808B138A128A8091340A9091350A019639
:100D30009093350A8093340A3A8130FF06C062E00E
:100D40008B819C810E94840711C06CE08B819C8107
:100D50000E948407FA81F2FD09C0C6010E94D301F6
:100D60002981822F90E00E94150803C0C6010E94CD
:100D7000D301C80101C09FEF0F900F900F900F900B
:100D8000DF91CF911F910F91FF90EF90DF90CF9067
:100D9000BF90AF909F908F907F906F905F904F909B
:100DA0003F902F9008950E94550E82EB92E09F9302
:100DB0008F930E946D0F0E94FD000F900F9080E0B6
:100DC00090E008950E94DE0CFDCF0E94C7018EEFD7
:100DD000C82E82E0D82EE12CF12C02EE16E02CE099
:100DE00030E04FE060E870E086EC96E00E94150687
:100DF00093E0C92E93E0D92E03ED16E02CE030E00D
:100E000047E060E872E086E497E00E9415060E94E1
:100E10002F0D0895EB012091C6093091C709232BAE
:100E200071F521E030E03093C7092093C609833083
:100E300091F40EB6202D0DB6802D90E0922B9F934D
:100E40008F9388E093E09F938F930E946D0F0F9094
:100E50000F900F900F90DF93CF938FE193E09F93CC
:100E60008F930E946D0F8BE393E09F938F930E946B
:100E70006D0F0F900F900F900F900F900F900E949A
:100E8000C7010E9409070E94DB0C1092330A1092DE
:100E9000320AA091EE09B091EF092091C809309172
:100EA000C90980E090E020FD04C0369527950196A1
:100EB000FACF880F991FFC01E453F64F0190F0819F
:100EC000E02D0190F081E02D3697AE17BF07C9F0F5
:100ED000109741F012968C9112978B3019F48CE098
:100EE00012968C938BE08283848195819093ED0997
:100EF0008093EC09F093EF09E093EE0981E090E034
:100F0000089580E090E008950F931F93CF93DF93AF
:100F1000FC0182816B30E0F18B3008F080C09F01D2
:100F20002A5F3F4F838190E0880F991FDC01A45313
:100F3000B64FCD91DC911197209751F0488159819E
:100F4000578346830D90BC91A02D2D933C9302C0F6
:100F500037832683DC01A453B64F2D933C9381E065
:100F600090E0038002C0880F991F0A94E2F7092ECF
:100F7000000CAA0BBB0B0091C8091091C909209164
:100F8000CA093091CB09802B912BA22BB32B3FC0E8
:100F90008B3008F444C0A381B0E0AA0FBB1FA45358
:100FA000B64FCD91DC911197209769F08881998196
:100FB000C817D90719F41D921C9205C0DC018D9148
:100FC0009C91998388832381A22FB0E0AA0FBB1F35
:100FD000A453B64F8D919C91892B09F581E090E047
:100FE00002C0880F991F2A95E2F780959095092EE7
:100FF000000CAA0BBB0B0091C8091091C9092091E4
:10100000CA093091CB0980239123A223B323809373
:10101000C8099093C909A093CA09B093CB09628308
:10102000DF91CF911F910F910895E091EE09F0911A
:10103000EF0922812B3028F0238130E082179307BB
:1010400068F40E94DD01892B39F081E090E09093F3
:10105000330A8093320A08950C947C0D08950E94FF
:10106000C701E091EC09F091ED09EE0FFF1FE0518F
:10107000F64F118210828091340A9091350A0197BF
:101080009093350A8093340A60E08091EE09909144
:10109000EF090E9484071092EF091092EE090E9456
:1010A0002F0D8F929F92AF92BF92CF92DF92EF92CD
:1010B000FF920F931F93CF93DF93DB0169017A01B6
:1010C000EC01E881F981309709F449C00681178164
:1010D0002085318516964D915D916D917C91199782
:1010E000041715072607370708F44CC0041715071F
:1010F00026073707A1F542855385648575859701D5
:101100008601041B150B260B370BB901A8010281C0
:10111000138124813581041715072607370790F1BD
:10112000041B150B260B370B1A964D915D916D9193
:101130007C911D9746015701841A950AA60AB70AA1
:1011400012964D915D916D917C91159748195909B1
:101150006A097B09401751076207730798F41196D3
:10116000FC93EE93EC01B983A883DF91CF911F919B
:101170000F91FF90EF90DF90CF90BF90AF909F9036
:101180008F900895CF019CCFFC01208131812115E2
:10119000310579F02617370751F4FB0120813181A1
:1011A000FC0131832083FB01118210820895C90163
:1011B000EBCF08956F927F928F929F92AF92BF92E2
:1011C000CF92DF92EF92FF920F931F93CF93DF9313
:1011D0000E94C701EC0180E090E00E944B044C01AA
:1011E00020913B0A30913C0A40913D0A50913E0AC1
:1011F00060913F0A7091400A8091410A9091420AA1
:1012000060903B0A70903C0AB0913D0AA0913E0A62
:10121000F0913F0AE091400A0091410A1091420A80
:10122000A12CB12CBA01A90166277727841A950A47
:10123000A60AB70AAA24BB249401A50160E070E0C5
:1012400080E090E05301CB2EDA2EEF2EFE2E0E948E
:10125000440F20933B0A30933C0A40933D0A50933D
:101260003E0A60933F0A7093400A8093410A90932C
:10127000420ACE010E94D30120913B0A30913C0AE0
:1012800040913D0A50913E0A60913F0A7091400A98
:101290008091410A9091420ADF91CF911F910F9165
:1012A000FF90EF90DF90CF90BF90AF909F908F9086
:1012B0007F906F9008950F931F93E091390AF091FA
:1012C0003A0A3097A9F002811381248135810115F2
:1012D00040E814072105310558F482859385A485DB
:1012E000B585B901A801480F591F6A1F7B1F0AC0A5
:1012F0002091360A21110FC0AB01BC01415050486A
:101300006F4F7F4F60E070E080E090E00E941A0431
:1013100081E08093360A1F910F9108950E94DA08A8
:10132000B901CA0108950F931F9300E010E020EB6C
:1013300039E040E950ED63E070E080E090E00E9429
:10134000C6030E948E092091430A3091440A232B40
:1013500021F41F910F910C945B091F910F91089537
:101360002F923F924F925F926F927F928F929F92B5
:10137000AF92BF92CF92DF92EF92FF920F931F93A3
:10138000CF93DF9300D01F92CDB7DEB781E090E01E
:101390009093440A8093430A1092360A0E94DA0816
:1013A00029013A014B015C012091390A30913A0A36
:1013B0003C832B838B819C81892B09F4A6C0EB8114
:1013C000FC8186819781A085B185892B8A2B8B2B07
:1013D00029F069E473E083E00E940A07EB81FC8155
:1013E00082859385A485B585B301A201481B590B5D
:1013F0006A0B7B0B82819381A481B5818417950749
:10140000A607B70760F08C019D01041B150B260B86
:10141000370B043111052105310508F05BC020911F
:10142000390A30913A0AEB81FC81E217F30789F619
:10143000481759076A077B0788F1AB81BC818D91FA
:101440009C91119790933A0A8093390AFD01128278
:101450001382148215821A961D921D921D921C925F
:101460001D9716861786108A118A1182108252964D
:10147000ED91FC91539754968D919C9155971995A8
:10148000E091390AF0913A0AFC83EB830E948E09BD
:101490002B013C01812C912C54018CCF0E948E0990
:1014A000AB81BC811A960D911D912D913C911D9798
:1014B000DC01CB01801B910BA20BB30BEB81FC81F8
:1014C000028113812481358180179107A207B30718
:1014D00028F3B3CFAB81BC8112960D931D932D934E
:1014E0003C931597FD01428653866486758692016A
:1014F000A301B401C50100E20E94280F26873787A7
:10150000408B518B2081318153CFA091370AB0910C
:10151000380ABC83AB839201A301B401C50100E288
:101520000E94280F29833A831A0173016201EB811B
:10153000FC81EF2B09F46BC0EB81FC8182859385E4
:10154000A485B58593018201081B190B2A0B3B0B5F
:1015500082819381A481B58180179107A207B30787
:1015600060F4468157816085718541505109610958
:1015700071094683578360877187801B910BA20B8B
:10158000B30BEB81FC8182839383A483B583DF015A
:10159000C286D386E486F586E9811E96EC931E9773
:1015A000FA811F96FC931F9750962C925097519654
:1015B0003C925197FD0186819781A085B185892B49
:1015C0008A2B8B2BE1F48091370A9091380AE81727
:1015D000F90709F0FECEBF0187E39AE00E94C40834
:1015E000A70196016B817C8189E39AE00E945108F2
:1015F0002091370A3091380A3C832B8398CFAB81F6
:10160000BC810D90BC91A02DBC83AB8390CF0E9478
:10161000DA0829013A014B015C01E091390AF091A5
:101620003A0A309789F182859385A485B585B301FF
:10163000A201481B590B6A0B7B0B82819381A48109
:10164000B58184179507A607B70708F4ADCE841BAC
:10165000950BA60BB70B84319105A105B10508F4D4
:10166000A3CE82839383A483B58342865386648604
:1016700075869201A301B401C50100E20E94280F02
:1016800026873787408B518B1092440A1092430A69
:101690008091430A9091440A892BD1F4C301B2018D
:1016A0000F900F900F900F90DF91CF911F910F919E
:1016B000FF90EF90DF90CF90BF90AF909F908F9072
:1016C0007F906F905F904F903F902F900C945B09AC
:1016D0000F900F900F900F90DF91CF911F910F916E
:1016E000FF90EF90DF90CF90BF90AF909F908F9042
:1016F0007F906F905F904F903F902F9008950F9341
:101700001F93CF93DF93EC010E94C7018C011A82D3
:101710001B821C821D821E821F82188619861A86D1
:101720001B861C861D861E861F86188A198ABE0186
:1017300089E39AE00E94C408BE0187E39AE00E9410
:10174000C408C801DF91CF911F910F910C94D30170
:101750004F925F926F927F928F929F92AF92BF92C1
:10176000CF92DF92EF92FF920F931F93CF93DF936D
:10177000DC015296ED91FC915397EF2B09F48DC04B
:10178000280139014A015B01EC010E947F0B4114E1
:1017900051046104710499F5B8E28B169104A10417
:1017A000B10468F580E090E00E944B046C01E12CEC
:1017B000F12C80E090E00E944B04A0E0B0E08C1996
:1017C0009D09AE09BF09AA27BB2788159905AA0557
:1017D000BB0578F3EA89FB898C899D89DF91CF91DC
:1017E0001F910F91FF90EF90DF90CF90BF90AF903F
:1017F0009F908F907F906F905F904F9019940E9470
:10180000C7016C010E94DA088A829B82AC82BD8289
:101810004E825F826886798659017A012A87BB8663
:101820004C87FD8600E20E94280F2E873F87488B59
:10183000598B9501A701BE01452846284728B1F4D8
:1018400089E39AE00E9451088091390A90913A0AFE
:10185000C817D90779F48091430A9091440A892BDB
:1018600049F4B501C7010E945B0904C087E39AE00F
:101870000E945108C601DF91CF911F910F91FF90F7
:10188000EF90DF90CF90BF90AF909F908F907F9020
:101890006F905F904F900C94D301DF91CF911F9187
:1018A0000F91FF90EF90DF90CF90BF90AF909F90FF
:1018B0008F907F906F905F904F9008950C94B30538
:1018C0004F925F926F927F928F929F92AF92BF9250
:1018D000CF92DF92EF92FF920F931F93CF93DF93FC
:1018E000CDB7DEB768970FB6F894DEBF0FBECDBF99
:1018F0002B013C0149015A010E94DD01892B31F184
:1019000089288A288B2829F069E473E083E00E9403
:101910000A0780E090E00E944B044C01A12CB12CFE
:1019200073016201EE24FF2480E090E00E944B04EA
:10193000A0E0B0E088199909AA09BB09AA27BB272A
:101940008C159D05AE05BF0578F31EC0188E1F8A45
:101950008EE59CE09C8B8B8B7E0187E1E80EF11C71
:10196000FE8AED8A61E070E0C7010E946E05950174
:101970008401B301A201CE0101960E94A80B61E08F
:1019800070E0C7010E946E0568960FB6F894DEBF3E
:101990000FBECDBFDF91CF911F910F91FF90EF90C0
:1019A000DF90CF90BF90AF909F908F907F906F907F
:1019B0005F904F9008950E94C701FFCF0895A895AA
:1019C0000FB6F894A89580916000886180936000BC
:1019D000109260000FBE0E947C0E0C94B30E1F92FA
:1019E0000F920FB60F9211245F9A60E171E080E0D0
:1019F0000E940A07240F351FF90131974FEA4083EF
:101A000031974EEF40834FE258E031974083319752
:101A1000508331971082319780833197908331972B
:101A2000108231971082319780E88083319710823D
:101A30003197108231971082C90183971292E8176B
:101A4000F907E1F7F901B4976083319770838AE170
:101A500082938F5F8032E1F7C9018C9708950E94CD
:101A600045070E94CD018DB79EB7209104023091A9
:101A70000502821B930B90930102809300028091D8
:101A8000470A9091480A892B41F480910202909173
:101A900003029093480A8093470AA091EE09B091FF
:101AA000EF09CD91CDBFDD91DEBFFF91EF91DF91C9
:101AB000CF91BF91AF919F918F917F916F915F91E6
:101AC0004F913F912F911F910F91FF90EF90DF90D9
:101AD000CF90BF90AF909F908F907F906F905F90CE
:101AE0004F903F902F901F900F900CBE0F900BBE09
:101AF0000F900FBE0F9008950E94DD01892B09F011
:101B000062C00F920FB6F8940F920BB60F920CB6FC
:101B10000F921F9211242F923F924F925F926F92D9
:101B20007F928F929F92AF92BF92CF92DF92EF926D
:101B3000FF920F931F932F933F934F935F936F9356
:101B40007F938F939F93AF93BF93CF93DF93EF9345
:101B5000FF93A091EE09B091EF090DB60D920EB66C
:101B60000D920E944507A091EE09B091EF09CD9129
:101B7000CDBFDD91DEBFFF91EF91DF91CF91BF919E
:101B8000AF919F918F917F916F915F914F913F9115
:101B90002F911F910F91FF90EF90DF90CF90BF900A
:101BA000AF909F908F907F906F905F904F903F90FD
:101BB0002F901F900F900CBE0F900BBE0F900FBE7A
:101BC0000F900895089581E090E09093330A8093F8
:101BD000320A08951092BC068091320A9091330A1D
:101BE000892B09F461C00F920FB6F8940F920BB6CF
:101BF0000F920CB60F921F9211242F923F924F9288
:101C00005F926F927F928F929F92AF92BF92CF928C
:101C1000DF92EF92FF920F931F932F933F934F9377
:101C20005F936F937F938F939F93AF93BF93CF9364
:101C3000DF93EF93FF93A091EE09B091EF090DB6FA
:101C40000D920EB60D920E944507A091EE09B0913B
:101C5000EF09CD91CDBFDD91DEBFFF91EF91DF9117
:101C6000CF91BF91AF919F918F917F916F915F9134
:101C70004F913F912F911F910F91FF90EF90DF9027
:101C8000CF90BF90AF909F908F907F906F905F901C
:101C90004F903F902F901F900F900CBE0F900BBE57
:101CA0000F900FBE0F90189508950C949309CF9341
:101CB000DF931F92CDB7DEB761E070E0CE010196F1
:101CC0000E94A30E8981082E000C990B0F90DF91C2
:101CD000CF910895CF93DF931F92CDB7DEB789835D
:101CE00061E070E0CE0101960E94A60E80E090E0D7
:101CF0000F90DF91CF9108950E94920EEBE4FAE0ED
:101D00008CE292E0938382838EE192E091838083E0
:101D10008BE593E00C94810F63E087E10E943D0323
:101D20005F9808950F931F9300E010E020E030E0EB
:101D300040E855E260E070E080E090E00E94FE0143
:101D40001F910F91089583EC9FEF0895CF93DF9338
:101D5000EB01AB01BC0180E090E00E945802CE0193
:101D6000DF91CF91089580E090E00E94CF0E80E057
:101D700090E00C94BF0E84B1876084B90895892BDC
:101D800029F069E473E083E00E940A07809164000F
:101D900084608093640080E090E00C94BB0E892BFB
:101DA00029F069E473E083E00E940A071092460A72
:101DB0001092450A8BB183608BB9809164008F7754
:101DC000809364008091BC008B7F8093BC008CE08A
:101DD0008093B8008091B9008C7F8093B900809186
:101DE000B9008093B9008091BC0084608093BC00EE
:101DF0000895A1E21A2EAA1BBB1BFD010DC0AA1F4C
:101E0000BB1FEE1FFF1FA217B307E407F50720F063
:101E1000A21BB30BE40BF50B661F771F881F991FDE
:101E20001A9469F760957095809590959B01AC0127
:101E3000BD01CF0108950E94550FA59F900DB49F3D
:101E4000900DA49F800D911D1124089597FB10F80B
:101E5000169400080F93083098F00850232F342F61
:101E6000452F562F672F782F892F902DF4CF05946B
:101E700097958795779567955795479537952795C2
:101E80000A95AAF70F9108952A0D3B1D4C1D5D1D63
:101E90006E1D7F1D801F911F0895EE0FFF1F881F6D
:101EA0008BBF0790F691E02D1994A29FB001B39FCC
:101EB000C001A39F700D811D1124911DB29F700D53
:101EC000811D1124911D0895FC0101900020E9F766
:101ED000809590958E0F9F1F0895CF93DF93CDB778
:101EE000DEB7AE014A5F5F4FFA0161917191AF01B8
:101EF00080914D0A90914E0A0E94B10FDF91CF91CF
:101F000008950F931F93CF93DF93E0914D0AF091C3
:101F10004E0A238121FF1BC08C01D0E0C0E0F801F4
:101F200081918F0160914D0A70914E0ADB011896E4
:101F3000ED91FC911997882331F01995892B79F34C
:101F4000DFEFCFEFECCF8AE01995892B19F08FEFF7
:101F50009FEF02C08D2F9C2FDF91CF911F910F918A
:101F600008952F923F924F925F926F927F928F923D
:101F70009F92AF92BF92CF92DF92EF92FF920F9318
:101F80001F93CF93DF93CDB7DEB72B970FB6F8949F
:101F9000DEBF0FBECDBF6C017B018A01FC01178241
:101FA0001682838181FFCCC1CE0101963C01F601EE
:101FB0009381F70193FD859193FF81917F018823A0
:101FC00009F4BAC1853239F493FD859193FF81916B
:101FD0007F01853229F4B60190E00E94D111E7CF4C
:101FE000912C212C312CFFE1F315D8F08B3279F0B4
:101FF00038F4803279F08332A1F4232D20611DC0A2
:102000008D3261F0803369F4232D216016C0832D59
:102010008260382EE32DE4603E2E2AC0F32DF86056
:102020001DC037FC2DC020ED280F2A3040F08E3225
:10203000B9F436FC81C1232D2064322E19C036FE3E
:1020400006C08AE0989E200D1124922E11C0EAE06D
:102050002E9E200D1124222EF32DF0623F2E08C05B
:102060008C3621F4832D8068382E02C0883641F4E6
:10207000F70193FD859193FF81917F018111B3CF8A
:10208000982F9F7D9554933028F40C5F1F4F9FE34A
:1020900099830DC0833631F0833771F0833509F0B1
:1020A00059C021C0F801808189830E5F1F4F8824A9
:1020B0008394912C530113C02801F2E04F0E511C60
:1020C000F801A080B18036FE03C0692D70E002C027
:1020D0006FEF7FEFC5010E94C6114C018201F32D05
:1020E000FF773F2E16C0280122E0420E511CF80156
:1020F000A080B18036FE03C0692D70E002C06FEF92
:102100007FEFC5010E94BB114C01F32DF0683F2EFB
:10211000820133FC1BC0822D90E088169906B0F432
:10212000B60180E290E00E94D1112A94F4CFF5012B
:1021300037FC859137FE81915F01B60190E00E94E6
:10214000D11121102A9421E0821A9108811491045E
:1021500071F7E8C0843611F0893641F5F80137FE91
:1021600007C060817181828193810C5F1F4F08C01D
:1021700060817181072E000C880B990B0E5F1F4F39
:10218000F32DFF763F2E97FF09C0909580957095AF
:1021900061957F4F8F4F9F4FF0683F2E2AE030E0D0
:1021A000A3010E940D12882E861845C0853731F490
:1021B000232D2F7EB22E2AE030E025C0932D997F6B
:1021C000B92E8F36C1F018F4883579F0B5C0803754
:1021D00019F0883721F0B0C0E92FE061BE2EB4FEBF
:1021E0000DC0FB2DF460BF2E09C034FE0AC0292F9C
:1021F0002660B22E06C028E030E005C020E130E0C5
:1022000002C020E132E0F801B7FE07C060817181B1
:10221000828193810C5F1F4F06C06081718180E0D5
:1022200090E00E5F1F4FA3010E940D12882E8618AA
:10223000FB2DFF773F2E36FE0DC0232D2E7FA22EC5
:10224000891458F434FE0BC032FC09C0832D8E7EF5
:10225000A82E05C0B82CA32C03C0B82C01C0B92CE3
:10226000A4FE0FC0FE01E80DF11D8081803321F432
:102270009A2D997EA92E09C0A2FE06C0B394B394EC
:1022800004C08A2D867809F0B394A3FC11C0A0FE87
:1022900006C0B21488F4280C922C9B180EC0B214FD
:1022A00060F4B60180E290E00E94D111B394F7CFC0
:1022B000B21418F42B1802C0982C212CA4FE10C0C4
:1022C000B60180E390E00E94D111A2FE17C0A1FCEC
:1022D00003C088E790E002C088E590E0B6010CC03A
:1022E0008A2D867859F0A1FE02C08BE201C080E2FF
:1022F000A7FC8DE2B60190E00E94D111891438F458
:10230000B60180E390E00E94D1119A94F7CF8A94AD
:10231000F301E80DF11D8081B60190E00E94D1111A
:102320008110F5CF222009F442CEB60180E290E080
:102330000E94D1112A94F6CFF6018681978102C0BE
:102340008FEF9FEF2B960FB6F894DEBF0FBECDBF79
:10235000DF91CF911F910F91FF90EF90DF90CF9081
:10236000BF90AF909F908F907F906F905F904F90B5
:102370003F902F900895FC0105906150704001102E
:10238000D8F7809590958E0F9F1F0895FC0161509E
:10239000704001900110D8F7809590958E0F9F1F87
:1023A00008950F931F93CF93DF93FB01238121FDAA
:1023B00003C08FEF9FEF2CC022FF16C046815781CC
:1023C000248135814217530744F4A081B1819D01D6
:1023D0002F5F3F4F318320838C93268137812F5F7E
:1023E0003F4F3783268314C08B01EC01FB0100842F
:1023F000F185E02D1995892BE1F6D80116968D917E
:102400009C911797019617969C938E931697CE01E1
:10241000DF91CF911F910F910895FA01AA272830DB
:1024200051F1203181F1E8946F936E7F6E5F7F4FA1
:102430008F4F9F4FAF4FB1E03ED0B4E03CD0670F1D
:10244000781F891F9A1FA11D680F791F8A1F911D70
:10245000A11D6A0F711D811D911DA11D20D009F4C0
:1024600068943F912AE0269F11243019305D319302
:10247000DEF6CF010895462F4770405D4193B3E0EB
:102480000FD0C9F7F6CF462F4F70405D4A3318F092
:10249000495D31FD4052419302D0A9F7EACFB4E043
:1024A000A6959795879577956795BA95C9F70097FB
:1024B0006105710508959B01AC010A2E069457959C
:1024C000479537952795BA95C9F7620F731F841FF3
:0A24D000951FA01D0895F894FFCF9A
:1024DA000000530A200080006F0036000000000050
:1024EA000000A00072003900000000000000000097
:1024FA000001000000000000570E0000000000026A
:10250A00000000006A0E0000000074783100736554
:10251A00747570282920646F6E65004041444565D2
:10252A0043737475761415161781807170333231BE
:10253A003000010203040506072726252423222149
:10254A004037626160A7A6A5A4A3A2A1A013121195
:10255A0010505152535455565790919293949596C0
:10256A00970D0A00256C6F00256C7500256C7800A4
:10257A00256C6900252E2A6600C000C800000306E3
:10258A00080A6D61696E28293A20546869732069BE
:10259A00732052494F5421202856657273696F6E11
:1025AA003A20554E4B4E4F574E20286275696C643F
:1025BA006469723A202F686F6D652F676972697353
:1025CA00682F52494F542D73706929290A0069648A
:1025DA006C65006D61696E00537461636B20506FA6
:1025EA00696E7465723A203078253034780A002A88
:1025FA002A2A2052494F54206B65726E656C2070EE
:10260A00616E69633A0A25730A0A002A2A2A20682F
:10261A00616C7465642E0A0A004641494C4544209F
:0E262A00415353455254494F4E2E000C0000B0
:04000003000001F206
:00000001FF
